{
	"data": {
		"bytecode": {
			"linkReferences": {},
			"object": "6080604052348015600e575f80fd5b50335f806101000a81548173ffffffffffffffffffffffffffffffffffffffff021916908373ffffffffffffffffffffffffffffffffffffffff160217905550612bc98061005b5f395ff3fe608060405234801561000f575f80fd5b50600436106100fe575f3560e01c8063647c70f2116100955780639ca0a84a116100645780639ca0a84a146102df578063b59d51421461030f578063c53fd38e1461032b578063f851a4401461035f576100fe565b8063647c70f214610245578063681b457814610261578063754084c7146102935780638705d744146102c3576100fe565b806346f56373116100d157806346f563731461018f5780634ca39ede146101c75780635b5f3568146101e5578063616d371714610215576100fe565b806314c956b4146101025780631c614189146101395780632895243b146101555780632e9209c71461015f575b5f80fd5b61011c6004803603810190610117919061197e565b61037d565b604051610130989796959493929190611a81565b60405180910390f35b610153600480360381019061014e9190611b43565b61070e565b005b61015d6109ed565b005b6101796004803603810190610174919061197e565b610ab5565b6040516101869190611ba7565b60405180910390f35b6101a960048036038101906101a4919061197e565b610bae565b6040516101be99989796959493929190611bc7565b60405180910390f35b6101cf610e3b565b6040516101dc9190611c6e565b60405180910390f35b6101ff60048036038101906101fa9190611c87565b610e41565b60405161020c9190611d69565b60405180910390f35b61022f600480360381019061022a9190611d89565b610ed4565b60405161023c9190611c6e565b60405180910390f35b61025f600480360381019061025a9190611ef3565b610eff565b005b61027b60048036038101906102769190611c87565b611085565b60405161028a93929190611f69565b60405180910390f35b6102ad60048036038101906102a8919061197e565b6111c3565b6040516102ba9190611c6e565b60405180910390f35b6102dd60048036038101906102d89190611fd6565b6111d8565b005b6102f960048036038101906102f4919061197e565b611346565b604051610306919061215f565b60405180910390f35b6103296004803603810190610324919061217f565b61142f565b005b61034560048036038101906103409190612207565b611753565b604051610356959493929190612245565b60405180910390f35b6103676117be565b6040516103749190612296565b60405180910390f35b5f60605f60605f806060805f60035f8b81526020019081526020015f205f0154036103dd576040517f08c379a00000000000000000000000000000000000000000000000000000000081526004016103d4906122f9565b60405180910390fd5b5f60035f8b81526020019081526020015f20604051806101200160405290815f8201548152602001600182015f9054906101000a900473ffffffffffffffffffffffffffffffffffffffff1673ffffffffffffffffffffffffffffffffffffffff1673ffffffffffffffffffffffffffffffffffffffff16815260200160028201805461046990612344565b80601f016020809104026020016040519081016040528092919081815260200182805461049590612344565b80156104e05780601f106104b7576101008083540402835291602001916104e0565b820191905f5260205f20905b8154815290600101906020018083116104c357829003601f168201915b505050505081526020016003820154815260200160048201805461050390612344565b80601f016020809104026020016040519081016040528092919081815260200182805461052f90612344565b801561057a5780601f106105515761010080835404028352916020019161057a565b820191905f5260205f20905b81548152906001019060200180831161055d57829003601f168201915b5050505050815260200160058201548152602001600682015f9054906101000a900460ff161515151581526020016007820180546105b790612344565b80601f01602080910402602001604051908101604052809291908181526020018280546105e390612344565b801561062e5780601f106106055761010080835404028352916020019161062e565b820191905f5260205f20905b81548152906001019060200180831161061157829003601f168201915b5050505050815260200160088201805461064790612344565b80601f016020809104026020016040519081016040528092919081815260200182805461067390612344565b80156106be5780601f10610695576101008083540402835291602001916106be565b820191905f5260205f20905b8154815290600101906020018083116106a157829003601f168201915b505050505081525050905080602001518160400151826060015183608001518460a001518560c001518660e001518761010001519850985098509850985098509850985050919395975091939597565b3373ffffffffffffffffffffffffffffffffffffffff1660035f8681526020019081526020015f206001015f9054906101000a900473ffffffffffffffffffffffffffffffffffffffff1673ffffffffffffffffffffffffffffffffffffffff16146107af576040517f08c379a00000000000000000000000000000000000000000000000000000000081526004016107a6906123be565b60405180910390fd5b60035f8581526020019081526020015f206006015f9054906101000a900460ff1661080f576040517f08c379a000000000000000000000000000000000000000000000000000000000815260040161080690612426565b60405180910390fd5b5f8211801561084e575060065f8581526020019081526020015f205460035f8681526020019081526020015f206003015461084a9190612471565b8211155b61088d576040517f08c379a0000000000000000000000000000000000000000000000000000000008152600401610884906124ee565b60405180910390fd5b8160065f8681526020019081526020015f205f8282546108ad919061250c565b9250508190555060045f8581526020019081526020015f206040518060a001604052808681526020018573ffffffffffffffffffffffffffffffffffffffff16815260200184815260200183815260200142815250908060018154018082558091505060019003905f5260205f2090600502015f909190919091505f820151815f01556020820151816001015f6101000a81548173ffffffffffffffffffffffffffffffffffffffff021916908373ffffffffffffffffffffffffffffffffffffffff16021790555060408201518160020155606082015181600301556080820151816004015550508273ffffffffffffffffffffffffffffffffffffffff16847f6a04f43d70ee04d3c54e9514dba5c36acd77b4638eb95de1e261d93a6b091cb184846040516109df92919061253f565b60405180910390a350505050565b5f8054906101000a900473ffffffffffffffffffffffffffffffffffffffff1673ffffffffffffffffffffffffffffffffffffffff163373ffffffffffffffffffffffffffffffffffffffff1614610a7a576040517f08c379a0000000000000000000000000000000000000000000000000000000008152600401610a71906125d6565b60405180910390fd5b7f606ed0fda650ca24c30c7a9352297fb8bcea485e2a750dd5ef5a3e856160db343342604051610aab9291906125f4565b60405180910390a1565b60605f60035f8481526020019081526020015f205f015403610b0c576040517f08c379a0000000000000000000000000000000000000000000000000000000008152600401610b03906122f9565b60405180910390fd5b60035f8381526020019081526020015f206008018054610b2b90612344565b80601f0160208091040260200160405190810160405280929190818152602001828054610b5790612344565b8015610ba25780601f10610b7957610100808354040283529160200191610ba2565b820191905f5260205f20905b815481529060010190602001808311610b8557829003601f168201915b50505050509050919050565b6003602052805f5260405f205f91509050805f015490806001015f9054906101000a900473ffffffffffffffffffffffffffffffffffffffff1690806002018054610bf890612344565b80601f0160208091040260200160405190810160405280929190818152602001828054610c2490612344565b8015610c6f5780601f10610c4657610100808354040283529160200191610c6f565b820191905f5260205f20905b815481529060010190602001808311610c5257829003601f168201915b505050505090806003015490806004018054610c8a90612344565b80601f0160208091040260200160405190810160405280929190818152602001828054610cb690612344565b8015610d015780601f10610cd857610100808354040283529160200191610d01565b820191905f5260205f20905b815481529060010190602001808311610ce457829003601f168201915b505050505090806005015490806006015f9054906101000a900460ff1690806007018054610d2e90612344565b80601f0160208091040260200160405190810160405280929190818152602001828054610d5a90612344565b8015610da55780601f10610d7c57610100808354040283529160200191610da5565b820191905f5260205f20905b815481529060010190602001808311610d8857829003601f168201915b505050505090806008018054610dba90612344565b80601f0160208091040260200160405190810160405280929190818152602001828054610de690612344565b8015610e315780601f10610e0857610100808354040283529160200191610e31565b820191905f5260205f20905b815481529060010190602001808311610e1457829003601f168201915b5050505050905089565b60015481565b606060055f8373ffffffffffffffffffffffffffffffffffffffff1673ffffffffffffffffffffffffffffffffffffffff1681526020019081526020015f20805480602002602001604051908101604052809291908181526020018280548015610ec857602002820191905f5260205f20905b815481526020019060010190808311610eb4575b50505050509050919050565b6005602052815f5260405f208181548110610eed575f80fd5b905f5260205f20015f91509150505481565b60025f3373ffffffffffffffffffffffffffffffffffffffff1673ffffffffffffffffffffffffffffffffffffffff1681526020019081526020015f206002015f9054906101000a900460ff1615610f8c576040517f08c379a0000000000000000000000000000000000000000000000000000000008152600401610f8390612665565b60405180910390fd5b60405180606001604052808381526020018281526020016001151581525060025f3373ffffffffffffffffffffffffffffffffffffffff1673ffffffffffffffffffffffffffffffffffffffff1681526020019081526020015f205f820151815f019081610ffa9190612820565b5060208201518160010190816110109190612820565b506040820151816002015f6101000a81548160ff0219169083151502179055509050503373ffffffffffffffffffffffffffffffffffffffff167fd0e866f9ec66791d69b1422dc3426c84a714de39ab5f547c095ce50ee5c9a2a8826040516110799190611ba7565b60405180910390a25050565b6002602052805f5260405f205f91509050805f0180546110a490612344565b80601f01602080910402602001604051908101604052809291908181526020018280546110d090612344565b801561111b5780601f106110f25761010080835404028352916020019161111b565b820191905f5260205f20905b8154815290600101906020018083116110fe57829003601f168201915b50505050509080600101805461113090612344565b80601f016020809104026020016040519081016040528092919081815260200182805461115c90612344565b80156111a75780601f1061117e576101008083540402835291602001916111a7565b820191905f5260205f20905b81548152906001019060200180831161118a57829003601f168201915b505050505090806002015f9054906101000a900460ff16905083565b6006602052805f5260405f205f915090505481565b5f8054906101000a900473ffffffffffffffffffffffffffffffffffffffff1673ffffffffffffffffffffffffffffffffffffffff163373ffffffffffffffffffffffffffffffffffffffff1614611265576040517f08c379a000000000000000000000000000000000000000000000000000000000815260040161125c906125d6565b60405180910390fd5b5f60035f8581526020019081526020015f205f0154036112ba576040517f08c379a00000000000000000000000000000000000000000000000000000000081526004016112b190612939565b60405180910390fd5b8160035f8581526020019081526020015f206006015f6101000a81548160ff0219169083151502179055508060035f8581526020019081526020015f2060070190816113069190612820565b50827f57e52ac741163bd0f43e4482553bf284978970990253b8064ac90f13934650f68383604051611339929190612957565b60405180910390a2505050565b606060045f8381526020019081526020015f20805480602002602001604051908101604052809291908181526020015f905b82821015611424578382905f5260205f2090600502016040518060a00160405290815f8201548152602001600182015f9054906101000a900473ffffffffffffffffffffffffffffffffffffffff1673ffffffffffffffffffffffffffffffffffffffff1673ffffffffffffffffffffffffffffffffffffffff168152602001600282015481526020016003820154815260200160048201548152505081526020019060010190611378565b505050509050919050565b60025f3373ffffffffffffffffffffffffffffffffffffffff1673ffffffffffffffffffffffffffffffffffffffff1681526020019081526020015f206002015f9054906101000a900460ff166114bb576040517f08c379a00000000000000000000000000000000000000000000000000000000081526004016114b2906129cf565b60405180910390fd5b5f82116114fd576040517f08c379a00000000000000000000000000000000000000000000000000000000081526004016114f4906124ee565b60405180910390fd5b60015f81548092919061150f906129ed565b91905055505f6115206001546117e1565b6040516020016115309190612ab8565b604051602081830303815290604052905060405180610120016040528060015481526020013373ffffffffffffffffffffffffffffffffffffffff1681526020018581526020018481526020018381526020014281526020015f1515815260200160405180602001604052805f81525081526020018281525060035f60015481526020019081526020015f205f820151815f01556020820151816001015f6101000a81548173ffffffffffffffffffffffffffffffffffffffff021916908373ffffffffffffffffffffffffffffffffffffffff160217905550604082015181600201908161161f9190612820565b5060608201518160030155608082015181600401908161163f9190612820565b5060a0820151816005015560c0820151816006015f6101000a81548160ff02191690831515021790555060e082015181600701908161167e9190612820565b506101008201518160080190816116959190612820565b5090505060055f3373ffffffffffffffffffffffffffffffffffffffff1673ffffffffffffffffffffffffffffffffffffffff1681526020019081526020015f20600154908060018154018082558091505060019003905f5260205f20015f90919091909150553373ffffffffffffffffffffffffffffffffffffffff166001547fd48ab54d3306afe00fec69ebcc5266641502a7a0b26b07ef97af999f1d762146836040516117459190611ba7565b60405180910390a350505050565b6004602052815f5260405f20818154811061176c575f80fd5b905f5260205f2090600502015f9150915050805f015490806001015f9054906101000a900473ffffffffffffffffffffffffffffffffffffffff16908060020154908060030154908060040154905085565b5f8054906101000a900473ffffffffffffffffffffffffffffffffffffffff1681565b60605f8203611827576040518060400160405280600181526020017f30000000000000000000000000000000000000000000000000000000000000008152509050611935565b5f8290505f5b5f821461185657808061183f906129ed565b915050600a8261184f9190612b06565b915061182d565b5f8167ffffffffffffffff81111561187157611870611dcf565b5b6040519080825280601f01601f1916602001820160405280156118a35781602001600182028036833780820191505090505b5090505b5f851461192e576001826118bb9190612471565b9150600a856118ca9190612b36565b60306118d6919061250c565b60f81b8183815181106118ec576118eb612b66565b5b60200101907effffffffffffffffffffffffffffffffffffffffffffffffffffffffffffff191690815f1a905350600a856119279190612b06565b94506118a7565b8093505050505b919050565b5f604051905090565b5f80fd5b5f80fd5b5f819050919050565b61195d8161194b565b8114611967575f80fd5b50565b5f8135905061197881611954565b92915050565b5f6020828403121561199357611992611943565b5b5f6119a08482850161196a565b91505092915050565b5f73ffffffffffffffffffffffffffffffffffffffff82169050919050565b5f6119d2826119a9565b9050919050565b6119e2816119c8565b82525050565b5f81519050919050565b5f82825260208201905092915050565b8281835e5f83830152505050565b5f601f19601f8301169050919050565b5f611a2a826119e8565b611a3481856119f2565b9350611a44818560208601611a02565b611a4d81611a10565b840191505092915050565b611a618161194b565b82525050565b5f8115159050919050565b611a7b81611a67565b82525050565b5f61010082019050611a955f83018b6119d9565b8181036020830152611aa7818a611a20565b9050611ab66040830189611a58565b8181036060830152611ac88188611a20565b9050611ad76080830187611a58565b611ae460a0830186611a72565b81810360c0830152611af68185611a20565b905081810360e0830152611b0a8184611a20565b90509998505050505050505050565b611b22816119c8565b8114611b2c575f80fd5b50565b5f81359050611b3d81611b19565b92915050565b5f805f8060808587031215611b5b57611b5a611943565b5b5f611b688782880161196a565b9450506020611b7987828801611b2f565b9350506040611b8a8782880161196a565b9250506060611b9b8782880161196a565b91505092959194509250565b5f6020820190508181035f830152611bbf8184611a20565b905092915050565b5f61012082019050611bdb5f83018c611a58565b611be8602083018b6119d9565b8181036040830152611bfa818a611a20565b9050611c096060830189611a58565b8181036080830152611c1b8188611a20565b9050611c2a60a0830187611a58565b611c3760c0830186611a72565b81810360e0830152611c498185611a20565b9050818103610100830152611c5e8184611a20565b90509a9950505050505050505050565b5f602082019050611c815f830184611a58565b92915050565b5f60208284031215611c9c57611c9b611943565b5b5f611ca984828501611b2f565b91505092915050565b5f81519050919050565b5f82825260208201905092915050565b5f819050602082019050919050565b611ce48161194b565b82525050565b5f611cf58383611cdb565b60208301905092915050565b5f602082019050919050565b5f611d1782611cb2565b611d218185611cbc565b9350611d2c83611ccc565b805f5b83811015611d5c578151611d438882611cea565b9750611d4e83611d01565b925050600181019050611d2f565b5085935050505092915050565b5f6020820190508181035f830152611d818184611d0d565b905092915050565b5f8060408385031215611d9f57611d9e611943565b5b5f611dac85828601611b2f565b9250506020611dbd8582860161196a565b9150509250929050565b5f80fd5b5f80fd5b7f4e487b71000000000000000000000000000000000000000000000000000000005f52604160045260245ffd5b611e0582611a10565b810181811067ffffffffffffffff82111715611e2457611e23611dcf565b5b80604052505050565b5f611e3661193a565b9050611e428282611dfc565b919050565b5f67ffffffffffffffff821115611e6157611e60611dcf565b5b611e6a82611a10565b9050602081019050919050565b828183375f83830152505050565b5f611e97611e9284611e47565b611e2d565b905082815260208101848484011115611eb357611eb2611dcb565b5b611ebe848285611e77565b509392505050565b5f82601f830112611eda57611ed9611dc7565b5b8135611eea848260208601611e85565b91505092915050565b5f8060408385031215611f0957611f08611943565b5b5f83013567ffffffffffffffff811115611f2657611f25611947565b5b611f3285828601611ec6565b925050602083013567ffffffffffffffff811115611f5357611f52611947565b5b611f5f85828601611ec6565b9150509250929050565b5f6060820190508181035f830152611f818186611a20565b90508181036020830152611f958185611a20565b9050611fa46040830184611a72565b949350505050565b611fb581611a67565b8114611fbf575f80fd5b50565b5f81359050611fd081611fac565b92915050565b5f805f60608486031215611fed57611fec611943565b5b5f611ffa8682870161196a565b935050602061200b86828701611fc2565b925050604084013567ffffffffffffffff81111561202c5761202b611947565b5b61203886828701611ec6565b9150509250925092565b5f81519050919050565b5f82825260208201905092915050565b5f819050602082019050919050565b612074816119c8565b82525050565b60a082015f82015161208e5f850182611cdb565b5060208201516120a1602085018261206b565b5060408201516120b46040850182611cdb565b5060608201516120c76060850182611cdb565b5060808201516120da6080850182611cdb565b50505050565b5f6120eb838361207a565b60a08301905092915050565b5f602082019050919050565b5f61210d82612042565b612117818561204c565b93506121228361205c565b805f5b8381101561215257815161213988826120e0565b9750612144836120f7565b925050600181019050612125565b5085935050505092915050565b5f6020820190508181035f8301526121778184612103565b905092915050565b5f805f6060848603121561219657612195611943565b5b5f84013567ffffffffffffffff8111156121b3576121b2611947565b5b6121bf86828701611ec6565b93505060206121d08682870161196a565b925050604084013567ffffffffffffffff8111156121f1576121f0611947565b5b6121fd86828701611ec6565b9150509250925092565b5f806040838503121561221d5761221c611943565b5b5f61222a8582860161196a565b925050602061223b8582860161196a565b9150509250929050565b5f60a0820190506122585f830188611a58565b61226560208301876119d9565b6122726040830186611a58565b61227f6060830185611a58565b61228c6080830184611a58565b9695505050505050565b5f6020820190506122a95f8301846119d9565b92915050565b7f4361746368206e6f7420666f756e6400000000000000000000000000000000005f82015250565b5f6122e3600f836119f2565b91506122ee826122af565b602082019050919050565b5f6020820190508181035f830152612310816122d7565b9050919050565b7f4e487b71000000000000000000000000000000000000000000000000000000005f52602260045260245ffd5b5f600282049050600182168061235b57607f821691505b60208210810361236e5761236d612317565b5b50919050565b7f4e6f7420796f75722063617463680000000000000000000000000000000000005f82015250565b5f6123a8600e836119f2565b91506123b382612374565b602082019050919050565b5f6020820190508181035f8301526123d58161239c565b9050919050565b7f4361746368206e6f7420617070726f76656400000000000000000000000000005f82015250565b5f6124106012836119f2565b915061241b826123dc565b602082019050919050565b5f6020820190508181035f83015261243d81612404565b9050919050565b7f4e487b71000000000000000000000000000000000000000000000000000000005f52601160045260245ffd5b5f61247b8261194b565b91506124868361194b565b925082820390508181111561249e5761249d612444565b5b92915050565b7f496e76616c6964207765696768740000000000000000000000000000000000005f82015250565b5f6124d8600e836119f2565b91506124e3826124a4565b602082019050919050565b5f6020820190508181035f830152612505816124cc565b9050919050565b5f6125168261194b565b91506125218361194b565b925082820190508082111561253957612538612444565b5b92915050565b5f6040820190506125525f830185611a58565b61255f6020830184611a58565b9392505050565b7f4f6e6c792061646d696e2063616e20706572666f726d207468697320616374695f8201527f6f6e000000000000000000000000000000000000000000000000000000000000602082015250565b5f6125c06022836119f2565b91506125cb82612566565b604082019050919050565b5f6020820190508181035f8301526125ed816125b4565b9050919050565b5f6040820190506126075f8301856119d9565b6126146020830184611a58565b9392505050565b7f416c7265616479207265676973746572656400000000000000000000000000005f82015250565b5f61264f6012836119f2565b915061265a8261261b565b602082019050919050565b5f6020820190508181035f83015261267c81612643565b9050919050565b5f819050815f5260205f209050919050565b5f6020601f8301049050919050565b5f82821b905092915050565b5f600883026126df7fffffffffffffffffffffffffffffffffffffffffffffffffffffffffffffffff826126a4565b6126e986836126a4565b95508019841693508086168417925050509392505050565b5f819050919050565b5f61272461271f61271a8461194b565b612701565b61194b565b9050919050565b5f819050919050565b61273d8361270a565b6127516127498261272b565b8484546126b0565b825550505050565b5f90565b612765612759565b612770818484612734565b505050565b5b81811015612793576127885f8261275d565b600181019050612776565b5050565b601f8211156127d8576127a981612683565b6127b284612695565b810160208510156127c1578190505b6127d56127cd85612695565b830182612775565b50505b505050565b5f82821c905092915050565b5f6127f85f19846008026127dd565b1980831691505092915050565b5f61281083836127e9565b9150826002028217905092915050565b612829826119e8565b67ffffffffffffffff81111561284257612841611dcf565b5b61284c8254612344565b612857828285612797565b5f60209050601f831160018114612888575f8415612876578287015190505b6128808582612805565b8655506128e7565b601f19841661289686612683565b5f5b828110156128bd57848901518255600182019150602085019450602081019050612898565b868310156128da57848901516128d6601f8916826127e9565b8355505b6001600288020188555050505b505050505050565b7f436174636820646f6573206e6f742065786973740000000000000000000000005f82015250565b5f6129236014836119f2565b915061292e826128ef565b602082019050919050565b5f6020820190508181035f83015261295081612917565b9050919050565b5f60408201905061296a5f830185611a72565b818103602083015261297c8184611a20565b90509392505050565b7f4e6f7420612072656769737465726564206669736865726d616e0000000000005f82015250565b5f6129b9601a836119f2565b91506129c482612985565b602082019050919050565b5f6020820190508181035f8301526129e6816129ad565b9050919050565b5f6129f78261194b565b91507fffffffffffffffffffffffffffffffffffffffffffffffffffffffffffffffff8203612a2957612a28612444565b5b600182019050919050565b5f81905092915050565b7f68747470733a2f2f796f7572646f6d61696e2e636f6d2f7665726966792f00005f82015250565b5f612a72601e83612a34565b9150612a7d82612a3e565b601e82019050919050565b5f612a92826119e8565b612a9c8185612a34565b9350612aac818560208601611a02565b80840191505092915050565b5f612ac282612a66565b9150612ace8284612a88565b915081905092915050565b7f4e487b71000000000000000000000000000000000000000000000000000000005f52601260045260245ffd5b5f612b108261194b565b9150612b1b8361194b565b925082612b2b57612b2a612ad9565b5b828204905092915050565b5f612b408261194b565b9150612b4b8361194b565b925082612b5b57612b5a612ad9565b5b828206905092915050565b7f4e487b71000000000000000000000000000000000000000000000000000000005f52603260045260245ffdfea2646970667358221220c29c54a4b3121d8d5e6fbab2857bb3581c1328c44e7adeb2a4f1b666eec9837664736f6c634300081a0033",
			"opcodes": "PUSH1 0x80 PUSH1 0x40 MSTORE CALLVALUE DUP1 ISZERO PUSH1 0xE JUMPI PUSH0 DUP1 REVERT JUMPDEST POP CALLER PUSH0 DUP1 PUSH2 0x100 EXP DUP2 SLOAD DUP2 PUSH20 0xFFFFFFFFFFFFFFFFFFFFFFFFFFFFFFFFFFFFFFFF MUL NOT AND SWAP1 DUP4 PUSH20 0xFFFFFFFFFFFFFFFFFFFFFFFFFFFFFFFFFFFFFFFF AND MUL OR SWAP1 SSTORE POP PUSH2 0x2BC9 DUP1 PUSH2 0x5B PUSH0 CODECOPY PUSH0 RETURN INVALID PUSH1 0x80 PUSH1 0x40 MSTORE CALLVALUE DUP1 ISZERO PUSH2 0xF JUMPI PUSH0 DUP1 REVERT JUMPDEST POP PUSH1 0x4 CALLDATASIZE LT PUSH2 0xFE JUMPI PUSH0 CALLDATALOAD PUSH1 0xE0 SHR DUP1 PUSH4 0x647C70F2 GT PUSH2 0x95 JUMPI DUP1 PUSH4 0x9CA0A84A GT PUSH2 0x64 JUMPI DUP1 PUSH4 0x9CA0A84A EQ PUSH2 0x2DF JUMPI DUP1 PUSH4 0xB59D5142 EQ PUSH2 0x30F JUMPI DUP1 PUSH4 0xC53FD38E EQ PUSH2 0x32B JUMPI DUP1 PUSH4 0xF851A440 EQ PUSH2 0x35F JUMPI PUSH2 0xFE JUMP JUMPDEST DUP1 PUSH4 0x647C70F2 EQ PUSH2 0x245 JUMPI DUP1 PUSH4 0x681B4578 EQ PUSH2 0x261 JUMPI DUP1 PUSH4 0x754084C7 EQ PUSH2 0x293 JUMPI DUP1 PUSH4 0x8705D744 EQ PUSH2 0x2C3 JUMPI PUSH2 0xFE JUMP JUMPDEST DUP1 PUSH4 0x46F56373 GT PUSH2 0xD1 JUMPI DUP1 PUSH4 0x46F56373 EQ PUSH2 0x18F JUMPI DUP1 PUSH4 0x4CA39EDE EQ PUSH2 0x1C7 JUMPI DUP1 PUSH4 0x5B5F3568 EQ PUSH2 0x1E5 JUMPI DUP1 PUSH4 0x616D3717 EQ PUSH2 0x215 JUMPI PUSH2 0xFE JUMP JUMPDEST DUP1 PUSH4 0x14C956B4 EQ PUSH2 0x102 JUMPI DUP1 PUSH4 0x1C614189 EQ PUSH2 0x139 JUMPI DUP1 PUSH4 0x2895243B EQ PUSH2 0x155 JUMPI DUP1 PUSH4 0x2E9209C7 EQ PUSH2 0x15F JUMPI JUMPDEST PUSH0 DUP1 REVERT JUMPDEST PUSH2 0x11C PUSH1 0x4 DUP1 CALLDATASIZE SUB DUP2 ADD SWAP1 PUSH2 0x117 SWAP2 SWAP1 PUSH2 0x197E JUMP JUMPDEST PUSH2 0x37D JUMP JUMPDEST PUSH1 0x40 MLOAD PUSH2 0x130 SWAP9 SWAP8 SWAP7 SWAP6 SWAP5 SWAP4 SWAP3 SWAP2 SWAP1 PUSH2 0x1A81 JUMP JUMPDEST PUSH1 0x40 MLOAD DUP1 SWAP2 SUB SWAP1 RETURN JUMPDEST PUSH2 0x153 PUSH1 0x4 DUP1 CALLDATASIZE SUB DUP2 ADD SWAP1 PUSH2 0x14E SWAP2 SWAP1 PUSH2 0x1B43 JUMP JUMPDEST PUSH2 0x70E JUMP JUMPDEST STOP JUMPDEST PUSH2 0x15D PUSH2 0x9ED JUMP JUMPDEST STOP JUMPDEST PUSH2 0x179 PUSH1 0x4 DUP1 CALLDATASIZE SUB DUP2 ADD SWAP1 PUSH2 0x174 SWAP2 SWAP1 PUSH2 0x197E JUMP JUMPDEST PUSH2 0xAB5 JUMP JUMPDEST PUSH1 0x40 MLOAD PUSH2 0x186 SWAP2 SWAP1 PUSH2 0x1BA7 JUMP JUMPDEST PUSH1 0x40 MLOAD DUP1 SWAP2 SUB SWAP1 RETURN JUMPDEST PUSH2 0x1A9 PUSH1 0x4 DUP1 CALLDATASIZE SUB DUP2 ADD SWAP1 PUSH2 0x1A4 SWAP2 SWAP1 PUSH2 0x197E JUMP JUMPDEST PUSH2 0xBAE JUMP JUMPDEST PUSH1 0x40 MLOAD PUSH2 0x1BE SWAP10 SWAP9 SWAP8 SWAP7 SWAP6 SWAP5 SWAP4 SWAP3 SWAP2 SWAP1 PUSH2 0x1BC7 JUMP JUMPDEST PUSH1 0x40 MLOAD DUP1 SWAP2 SUB SWAP1 RETURN JUMPDEST PUSH2 0x1CF PUSH2 0xE3B JUMP JUMPDEST PUSH1 0x40 MLOAD PUSH2 0x1DC SWAP2 SWAP1 PUSH2 0x1C6E JUMP JUMPDEST PUSH1 0x40 MLOAD DUP1 SWAP2 SUB SWAP1 RETURN JUMPDEST PUSH2 0x1FF PUSH1 0x4 DUP1 CALLDATASIZE SUB DUP2 ADD SWAP1 PUSH2 0x1FA SWAP2 SWAP1 PUSH2 0x1C87 JUMP JUMPDEST PUSH2 0xE41 JUMP JUMPDEST PUSH1 0x40 MLOAD PUSH2 0x20C SWAP2 SWAP1 PUSH2 0x1D69 JUMP JUMPDEST PUSH1 0x40 MLOAD DUP1 SWAP2 SUB SWAP1 RETURN JUMPDEST PUSH2 0x22F PUSH1 0x4 DUP1 CALLDATASIZE SUB DUP2 ADD SWAP1 PUSH2 0x22A SWAP2 SWAP1 PUSH2 0x1D89 JUMP JUMPDEST PUSH2 0xED4 JUMP JUMPDEST PUSH1 0x40 MLOAD PUSH2 0x23C SWAP2 SWAP1 PUSH2 0x1C6E JUMP JUMPDEST PUSH1 0x40 MLOAD DUP1 SWAP2 SUB SWAP1 RETURN JUMPDEST PUSH2 0x25F PUSH1 0x4 DUP1 CALLDATASIZE SUB DUP2 ADD SWAP1 PUSH2 0x25A SWAP2 SWAP1 PUSH2 0x1EF3 JUMP JUMPDEST PUSH2 0xEFF JUMP JUMPDEST STOP JUMPDEST PUSH2 0x27B PUSH1 0x4 DUP1 CALLDATASIZE SUB DUP2 ADD SWAP1 PUSH2 0x276 SWAP2 SWAP1 PUSH2 0x1C87 JUMP JUMPDEST PUSH2 0x1085 JUMP JUMPDEST PUSH1 0x40 MLOAD PUSH2 0x28A SWAP4 SWAP3 SWAP2 SWAP1 PUSH2 0x1F69 JUMP JUMPDEST PUSH1 0x40 MLOAD DUP1 SWAP2 SUB SWAP1 RETURN JUMPDEST PUSH2 0x2AD PUSH1 0x4 DUP1 CALLDATASIZE SUB DUP2 ADD SWAP1 PUSH2 0x2A8 SWAP2 SWAP1 PUSH2 0x197E JUMP JUMPDEST PUSH2 0x11C3 JUMP JUMPDEST PUSH1 0x40 MLOAD PUSH2 0x2BA SWAP2 SWAP1 PUSH2 0x1C6E JUMP JUMPDEST PUSH1 0x40 MLOAD DUP1 SWAP2 SUB SWAP1 RETURN JUMPDEST PUSH2 0x2DD PUSH1 0x4 DUP1 CALLDATASIZE SUB DUP2 ADD SWAP1 PUSH2 0x2D8 SWAP2 SWAP1 PUSH2 0x1FD6 JUMP JUMPDEST PUSH2 0x11D8 JUMP JUMPDEST STOP JUMPDEST PUSH2 0x2F9 PUSH1 0x4 DUP1 CALLDATASIZE SUB DUP2 ADD SWAP1 PUSH2 0x2F4 SWAP2 SWAP1 PUSH2 0x197E JUMP JUMPDEST PUSH2 0x1346 JUMP JUMPDEST PUSH1 0x40 MLOAD PUSH2 0x306 SWAP2 SWAP1 PUSH2 0x215F JUMP JUMPDEST PUSH1 0x40 MLOAD DUP1 SWAP2 SUB SWAP1 RETURN JUMPDEST PUSH2 0x329 PUSH1 0x4 DUP1 CALLDATASIZE SUB DUP2 ADD SWAP1 PUSH2 0x324 SWAP2 SWAP1 PUSH2 0x217F JUMP JUMPDEST PUSH2 0x142F JUMP JUMPDEST STOP JUMPDEST PUSH2 0x345 PUSH1 0x4 DUP1 CALLDATASIZE SUB DUP2 ADD SWAP1 PUSH2 0x340 SWAP2 SWAP1 PUSH2 0x2207 JUMP JUMPDEST PUSH2 0x1753 JUMP JUMPDEST PUSH1 0x40 MLOAD PUSH2 0x356 SWAP6 SWAP5 SWAP4 SWAP3 SWAP2 SWAP1 PUSH2 0x2245 JUMP JUMPDEST PUSH1 0x40 MLOAD DUP1 SWAP2 SUB SWAP1 RETURN JUMPDEST PUSH2 0x367 PUSH2 0x17BE JUMP JUMPDEST PUSH1 0x40 MLOAD PUSH2 0x374 SWAP2 SWAP1 PUSH2 0x2296 JUMP JUMPDEST PUSH1 0x40 MLOAD DUP1 SWAP2 SUB SWAP1 RETURN JUMPDEST PUSH0 PUSH1 0x60 PUSH0 PUSH1 0x60 PUSH0 DUP1 PUSH1 0x60 DUP1 PUSH0 PUSH1 0x3 PUSH0 DUP12 DUP2 MSTORE PUSH1 0x20 ADD SWAP1 DUP2 MSTORE PUSH1 0x20 ADD PUSH0 KECCAK256 PUSH0 ADD SLOAD SUB PUSH2 0x3DD JUMPI PUSH1 0x40 MLOAD PUSH32 0x8C379A000000000000000000000000000000000000000000000000000000000 DUP2 MSTORE PUSH1 0x4 ADD PUSH2 0x3D4 SWAP1 PUSH2 0x22F9 JUMP JUMPDEST PUSH1 0x40 MLOAD DUP1 SWAP2 SUB SWAP1 REVERT JUMPDEST PUSH0 PUSH1 0x3 PUSH0 DUP12 DUP2 MSTORE PUSH1 0x20 ADD SWAP1 DUP2 MSTORE PUSH1 0x20 ADD PUSH0 KECCAK256 PUSH1 0x40 MLOAD DUP1 PUSH2 0x120 ADD PUSH1 0x40 MSTORE SWAP1 DUP2 PUSH0 DUP3 ADD SLOAD DUP2 MSTORE PUSH1 0x20 ADD PUSH1 0x1 DUP3 ADD PUSH0 SWAP1 SLOAD SWAP1 PUSH2 0x100 EXP SWAP1 DIV PUSH20 0xFFFFFFFFFFFFFFFFFFFFFFFFFFFFFFFFFFFFFFFF AND PUSH20 0xFFFFFFFFFFFFFFFFFFFFFFFFFFFFFFFFFFFFFFFF AND PUSH20 0xFFFFFFFFFFFFFFFFFFFFFFFFFFFFFFFFFFFFFFFF AND DUP2 MSTORE PUSH1 0x20 ADD PUSH1 0x2 DUP3 ADD DUP1 SLOAD PUSH2 0x469 SWAP1 PUSH2 0x2344 JUMP JUMPDEST DUP1 PUSH1 0x1F ADD PUSH1 0x20 DUP1 SWAP2 DIV MUL PUSH1 0x20 ADD PUSH1 0x40 MLOAD SWAP1 DUP2 ADD PUSH1 0x40 MSTORE DUP1 SWAP3 SWAP2 SWAP1 DUP2 DUP2 MSTORE PUSH1 0x20 ADD DUP3 DUP1 SLOAD PUSH2 0x495 SWAP1 PUSH2 0x2344 JUMP JUMPDEST DUP1 ISZERO PUSH2 0x4E0 JUMPI DUP1 PUSH1 0x1F LT PUSH2 0x4B7 JUMPI PUSH2 0x100 DUP1 DUP4 SLOAD DIV MUL DUP4 MSTORE SWAP2 PUSH1 0x20 ADD SWAP2 PUSH2 0x4E0 JUMP JUMPDEST DUP3 ADD SWAP2 SWAP1 PUSH0 MSTORE PUSH1 0x20 PUSH0 KECCAK256 SWAP1 JUMPDEST DUP2 SLOAD DUP2 MSTORE SWAP1 PUSH1 0x1 ADD SWAP1 PUSH1 0x20 ADD DUP1 DUP4 GT PUSH2 0x4C3 JUMPI DUP3 SWAP1 SUB PUSH1 0x1F AND DUP3 ADD SWAP2 JUMPDEST POP POP POP POP POP DUP2 MSTORE PUSH1 0x20 ADD PUSH1 0x3 DUP3 ADD SLOAD DUP2 MSTORE PUSH1 0x20 ADD PUSH1 0x4 DUP3 ADD DUP1 SLOAD PUSH2 0x503 SWAP1 PUSH2 0x2344 JUMP JUMPDEST DUP1 PUSH1 0x1F ADD PUSH1 0x20 DUP1 SWAP2 DIV MUL PUSH1 0x20 ADD PUSH1 0x40 MLOAD SWAP1 DUP2 ADD PUSH1 0x40 MSTORE DUP1 SWAP3 SWAP2 SWAP1 DUP2 DUP2 MSTORE PUSH1 0x20 ADD DUP3 DUP1 SLOAD PUSH2 0x52F SWAP1 PUSH2 0x2344 JUMP JUMPDEST DUP1 ISZERO PUSH2 0x57A JUMPI DUP1 PUSH1 0x1F LT PUSH2 0x551 JUMPI PUSH2 0x100 DUP1 DUP4 SLOAD DIV MUL DUP4 MSTORE SWAP2 PUSH1 0x20 ADD SWAP2 PUSH2 0x57A JUMP JUMPDEST DUP3 ADD SWAP2 SWAP1 PUSH0 MSTORE PUSH1 0x20 PUSH0 KECCAK256 SWAP1 JUMPDEST DUP2 SLOAD DUP2 MSTORE SWAP1 PUSH1 0x1 ADD SWAP1 PUSH1 0x20 ADD DUP1 DUP4 GT PUSH2 0x55D JUMPI DUP3 SWAP1 SUB PUSH1 0x1F AND DUP3 ADD SWAP2 JUMPDEST POP POP POP POP POP DUP2 MSTORE PUSH1 0x20 ADD PUSH1 0x5 DUP3 ADD SLOAD DUP2 MSTORE PUSH1 0x20 ADD PUSH1 0x6 DUP3 ADD PUSH0 SWAP1 SLOAD SWAP1 PUSH2 0x100 EXP SWAP1 DIV PUSH1 0xFF AND ISZERO ISZERO ISZERO ISZERO DUP2 MSTORE PUSH1 0x20 ADD PUSH1 0x7 DUP3 ADD DUP1 SLOAD PUSH2 0x5B7 SWAP1 PUSH2 0x2344 JUMP JUMPDEST DUP1 PUSH1 0x1F ADD PUSH1 0x20 DUP1 SWAP2 DIV MUL PUSH1 0x20 ADD PUSH1 0x40 MLOAD SWAP1 DUP2 ADD PUSH1 0x40 MSTORE DUP1 SWAP3 SWAP2 SWAP1 DUP2 DUP2 MSTORE PUSH1 0x20 ADD DUP3 DUP1 SLOAD PUSH2 0x5E3 SWAP1 PUSH2 0x2344 JUMP JUMPDEST DUP1 ISZERO PUSH2 0x62E JUMPI DUP1 PUSH1 0x1F LT PUSH2 0x605 JUMPI PUSH2 0x100 DUP1 DUP4 SLOAD DIV MUL DUP4 MSTORE SWAP2 PUSH1 0x20 ADD SWAP2 PUSH2 0x62E JUMP JUMPDEST DUP3 ADD SWAP2 SWAP1 PUSH0 MSTORE PUSH1 0x20 PUSH0 KECCAK256 SWAP1 JUMPDEST DUP2 SLOAD DUP2 MSTORE SWAP1 PUSH1 0x1 ADD SWAP1 PUSH1 0x20 ADD DUP1 DUP4 GT PUSH2 0x611 JUMPI DUP3 SWAP1 SUB PUSH1 0x1F AND DUP3 ADD SWAP2 JUMPDEST POP POP POP POP POP DUP2 MSTORE PUSH1 0x20 ADD PUSH1 0x8 DUP3 ADD DUP1 SLOAD PUSH2 0x647 SWAP1 PUSH2 0x2344 JUMP JUMPDEST DUP1 PUSH1 0x1F ADD PUSH1 0x20 DUP1 SWAP2 DIV MUL PUSH1 0x20 ADD PUSH1 0x40 MLOAD SWAP1 DUP2 ADD PUSH1 0x40 MSTORE DUP1 SWAP3 SWAP2 SWAP1 DUP2 DUP2 MSTORE PUSH1 0x20 ADD DUP3 DUP1 SLOAD PUSH2 0x673 SWAP1 PUSH2 0x2344 JUMP JUMPDEST DUP1 ISZERO PUSH2 0x6BE JUMPI DUP1 PUSH1 0x1F LT PUSH2 0x695 JUMPI PUSH2 0x100 DUP1 DUP4 SLOAD DIV MUL DUP4 MSTORE SWAP2 PUSH1 0x20 ADD SWAP2 PUSH2 0x6BE JUMP JUMPDEST DUP3 ADD SWAP2 SWAP1 PUSH0 MSTORE PUSH1 0x20 PUSH0 KECCAK256 SWAP1 JUMPDEST DUP2 SLOAD DUP2 MSTORE SWAP1 PUSH1 0x1 ADD SWAP1 PUSH1 0x20 ADD DUP1 DUP4 GT PUSH2 0x6A1 JUMPI DUP3 SWAP1 SUB PUSH1 0x1F AND DUP3 ADD SWAP2 JUMPDEST POP POP POP POP POP DUP2 MSTORE POP POP SWAP1 POP DUP1 PUSH1 0x20 ADD MLOAD DUP2 PUSH1 0x40 ADD MLOAD DUP3 PUSH1 0x60 ADD MLOAD DUP4 PUSH1 0x80 ADD MLOAD DUP5 PUSH1 0xA0 ADD MLOAD DUP6 PUSH1 0xC0 ADD MLOAD DUP7 PUSH1 0xE0 ADD MLOAD DUP8 PUSH2 0x100 ADD MLOAD SWAP9 POP SWAP9 POP SWAP9 POP SWAP9 POP SWAP9 POP SWAP9 POP SWAP9 POP SWAP9 POP POP SWAP2 SWAP4 SWAP6 SWAP8 POP SWAP2 SWAP4 SWAP6 SWAP8 JUMP JUMPDEST CALLER PUSH20 0xFFFFFFFFFFFFFFFFFFFFFFFFFFFFFFFFFFFFFFFF AND PUSH1 0x3 PUSH0 DUP7 DUP2 MSTORE PUSH1 0x20 ADD SWAP1 DUP2 MSTORE PUSH1 0x20 ADD PUSH0 KECCAK256 PUSH1 0x1 ADD PUSH0 SWAP1 SLOAD SWAP1 PUSH2 0x100 EXP SWAP1 DIV PUSH20 0xFFFFFFFFFFFFFFFFFFFFFFFFFFFFFFFFFFFFFFFF AND PUSH20 0xFFFFFFFFFFFFFFFFFFFFFFFFFFFFFFFFFFFFFFFF AND EQ PUSH2 0x7AF JUMPI PUSH1 0x40 MLOAD PUSH32 0x8C379A000000000000000000000000000000000000000000000000000000000 DUP2 MSTORE PUSH1 0x4 ADD PUSH2 0x7A6 SWAP1 PUSH2 0x23BE JUMP JUMPDEST PUSH1 0x40 MLOAD DUP1 SWAP2 SUB SWAP1 REVERT JUMPDEST PUSH1 0x3 PUSH0 DUP6 DUP2 MSTORE PUSH1 0x20 ADD SWAP1 DUP2 MSTORE PUSH1 0x20 ADD PUSH0 KECCAK256 PUSH1 0x6 ADD PUSH0 SWAP1 SLOAD SWAP1 PUSH2 0x100 EXP SWAP1 DIV PUSH1 0xFF AND PUSH2 0x80F JUMPI PUSH1 0x40 MLOAD PUSH32 0x8C379A000000000000000000000000000000000000000000000000000000000 DUP2 MSTORE PUSH1 0x4 ADD PUSH2 0x806 SWAP1 PUSH2 0x2426 JUMP JUMPDEST PUSH1 0x40 MLOAD DUP1 SWAP2 SUB SWAP1 REVERT JUMPDEST PUSH0 DUP3 GT DUP1 ISZERO PUSH2 0x84E JUMPI POP PUSH1 0x6 PUSH0 DUP6 DUP2 MSTORE PUSH1 0x20 ADD SWAP1 DUP2 MSTORE PUSH1 0x20 ADD PUSH0 KECCAK256 SLOAD PUSH1 0x3 PUSH0 DUP7 DUP2 MSTORE PUSH1 0x20 ADD SWAP1 DUP2 MSTORE PUSH1 0x20 ADD PUSH0 KECCAK256 PUSH1 0x3 ADD SLOAD PUSH2 0x84A SWAP2 SWAP1 PUSH2 0x2471 JUMP JUMPDEST DUP3 GT ISZERO JUMPDEST PUSH2 0x88D JUMPI PUSH1 0x40 MLOAD PUSH32 0x8C379A000000000000000000000000000000000000000000000000000000000 DUP2 MSTORE PUSH1 0x4 ADD PUSH2 0x884 SWAP1 PUSH2 0x24EE JUMP JUMPDEST PUSH1 0x40 MLOAD DUP1 SWAP2 SUB SWAP1 REVERT JUMPDEST DUP2 PUSH1 0x6 PUSH0 DUP7 DUP2 MSTORE PUSH1 0x20 ADD SWAP1 DUP2 MSTORE PUSH1 0x20 ADD PUSH0 KECCAK256 PUSH0 DUP3 DUP3 SLOAD PUSH2 0x8AD SWAP2 SWAP1 PUSH2 0x250C JUMP JUMPDEST SWAP3 POP POP DUP2 SWAP1 SSTORE POP PUSH1 0x4 PUSH0 DUP6 DUP2 MSTORE PUSH1 0x20 ADD SWAP1 DUP2 MSTORE PUSH1 0x20 ADD PUSH0 KECCAK256 PUSH1 0x40 MLOAD DUP1 PUSH1 0xA0 ADD PUSH1 0x40 MSTORE DUP1 DUP7 DUP2 MSTORE PUSH1 0x20 ADD DUP6 PUSH20 0xFFFFFFFFFFFFFFFFFFFFFFFFFFFFFFFFFFFFFFFF AND DUP2 MSTORE PUSH1 0x20 ADD DUP5 DUP2 MSTORE PUSH1 0x20 ADD DUP4 DUP2 MSTORE PUSH1 0x20 ADD TIMESTAMP DUP2 MSTORE POP SWAP1 DUP1 PUSH1 0x1 DUP2 SLOAD ADD DUP1 DUP3 SSTORE DUP1 SWAP2 POP POP PUSH1 0x1 SWAP1 SUB SWAP1 PUSH0 MSTORE PUSH1 0x20 PUSH0 KECCAK256 SWAP1 PUSH1 0x5 MUL ADD PUSH0 SWAP1 SWAP2 SWAP1 SWAP2 SWAP1 SWAP2 POP PUSH0 DUP3 ADD MLOAD DUP2 PUSH0 ADD SSTORE PUSH1 0x20 DUP3 ADD MLOAD DUP2 PUSH1 0x1 ADD PUSH0 PUSH2 0x100 EXP DUP2 SLOAD DUP2 PUSH20 0xFFFFFFFFFFFFFFFFFFFFFFFFFFFFFFFFFFFFFFFF MUL NOT AND SWAP1 DUP4 PUSH20 0xFFFFFFFFFFFFFFFFFFFFFFFFFFFFFFFFFFFFFFFF AND MUL OR SWAP1 SSTORE POP PUSH1 0x40 DUP3 ADD MLOAD DUP2 PUSH1 0x2 ADD SSTORE PUSH1 0x60 DUP3 ADD MLOAD DUP2 PUSH1 0x3 ADD SSTORE PUSH1 0x80 DUP3 ADD MLOAD DUP2 PUSH1 0x4 ADD SSTORE POP POP DUP3 PUSH20 0xFFFFFFFFFFFFFFFFFFFFFFFFFFFFFFFFFFFFFFFF AND DUP5 PUSH32 0x6A04F43D70EE04D3C54E9514DBA5C36ACD77B4638EB95DE1E261D93A6B091CB1 DUP5 DUP5 PUSH1 0x40 MLOAD PUSH2 0x9DF SWAP3 SWAP2 SWAP1 PUSH2 0x253F JUMP JUMPDEST PUSH1 0x40 MLOAD DUP1 SWAP2 SUB SWAP1 LOG3 POP POP POP POP JUMP JUMPDEST PUSH0 DUP1 SLOAD SWAP1 PUSH2 0x100 EXP SWAP1 DIV PUSH20 0xFFFFFFFFFFFFFFFFFFFFFFFFFFFFFFFFFFFFFFFF AND PUSH20 0xFFFFFFFFFFFFFFFFFFFFFFFFFFFFFFFFFFFFFFFF AND CALLER PUSH20 0xFFFFFFFFFFFFFFFFFFFFFFFFFFFFFFFFFFFFFFFF AND EQ PUSH2 0xA7A JUMPI PUSH1 0x40 MLOAD PUSH32 0x8C379A000000000000000000000000000000000000000000000000000000000 DUP2 MSTORE PUSH1 0x4 ADD PUSH2 0xA71 SWAP1 PUSH2 0x25D6 JUMP JUMPDEST PUSH1 0x40 MLOAD DUP1 SWAP2 SUB SWAP1 REVERT JUMPDEST PUSH32 0x606ED0FDA650CA24C30C7A9352297FB8BCEA485E2A750DD5EF5A3E856160DB34 CALLER TIMESTAMP PUSH1 0x40 MLOAD PUSH2 0xAAB SWAP3 SWAP2 SWAP1 PUSH2 0x25F4 JUMP JUMPDEST PUSH1 0x40 MLOAD DUP1 SWAP2 SUB SWAP1 LOG1 JUMP JUMPDEST PUSH1 0x60 PUSH0 PUSH1 0x3 PUSH0 DUP5 DUP2 MSTORE PUSH1 0x20 ADD SWAP1 DUP2 MSTORE PUSH1 0x20 ADD PUSH0 KECCAK256 PUSH0 ADD SLOAD SUB PUSH2 0xB0C JUMPI PUSH1 0x40 MLOAD PUSH32 0x8C379A000000000000000000000000000000000000000000000000000000000 DUP2 MSTORE PUSH1 0x4 ADD PUSH2 0xB03 SWAP1 PUSH2 0x22F9 JUMP JUMPDEST PUSH1 0x40 MLOAD DUP1 SWAP2 SUB SWAP1 REVERT JUMPDEST PUSH1 0x3 PUSH0 DUP4 DUP2 MSTORE PUSH1 0x20 ADD SWAP1 DUP2 MSTORE PUSH1 0x20 ADD PUSH0 KECCAK256 PUSH1 0x8 ADD DUP1 SLOAD PUSH2 0xB2B SWAP1 PUSH2 0x2344 JUMP JUMPDEST DUP1 PUSH1 0x1F ADD PUSH1 0x20 DUP1 SWAP2 DIV MUL PUSH1 0x20 ADD PUSH1 0x40 MLOAD SWAP1 DUP2 ADD PUSH1 0x40 MSTORE DUP1 SWAP3 SWAP2 SWAP1 DUP2 DUP2 MSTORE PUSH1 0x20 ADD DUP3 DUP1 SLOAD PUSH2 0xB57 SWAP1 PUSH2 0x2344 JUMP JUMPDEST DUP1 ISZERO PUSH2 0xBA2 JUMPI DUP1 PUSH1 0x1F LT PUSH2 0xB79 JUMPI PUSH2 0x100 DUP1 DUP4 SLOAD DIV MUL DUP4 MSTORE SWAP2 PUSH1 0x20 ADD SWAP2 PUSH2 0xBA2 JUMP JUMPDEST DUP3 ADD SWAP2 SWAP1 PUSH0 MSTORE PUSH1 0x20 PUSH0 KECCAK256 SWAP1 JUMPDEST DUP2 SLOAD DUP2 MSTORE SWAP1 PUSH1 0x1 ADD SWAP1 PUSH1 0x20 ADD DUP1 DUP4 GT PUSH2 0xB85 JUMPI DUP3 SWAP1 SUB PUSH1 0x1F AND DUP3 ADD SWAP2 JUMPDEST POP POP POP POP POP SWAP1 POP SWAP2 SWAP1 POP JUMP JUMPDEST PUSH1 0x3 PUSH1 0x20 MSTORE DUP1 PUSH0 MSTORE PUSH1 0x40 PUSH0 KECCAK256 PUSH0 SWAP2 POP SWAP1 POP DUP1 PUSH0 ADD SLOAD SWAP1 DUP1 PUSH1 0x1 ADD PUSH0 SWAP1 SLOAD SWAP1 PUSH2 0x100 EXP SWAP1 DIV PUSH20 0xFFFFFFFFFFFFFFFFFFFFFFFFFFFFFFFFFFFFFFFF AND SWAP1 DUP1 PUSH1 0x2 ADD DUP1 SLOAD PUSH2 0xBF8 SWAP1 PUSH2 0x2344 JUMP JUMPDEST DUP1 PUSH1 0x1F ADD PUSH1 0x20 DUP1 SWAP2 DIV MUL PUSH1 0x20 ADD PUSH1 0x40 MLOAD SWAP1 DUP2 ADD PUSH1 0x40 MSTORE DUP1 SWAP3 SWAP2 SWAP1 DUP2 DUP2 MSTORE PUSH1 0x20 ADD DUP3 DUP1 SLOAD PUSH2 0xC24 SWAP1 PUSH2 0x2344 JUMP JUMPDEST DUP1 ISZERO PUSH2 0xC6F JUMPI DUP1 PUSH1 0x1F LT PUSH2 0xC46 JUMPI PUSH2 0x100 DUP1 DUP4 SLOAD DIV MUL DUP4 MSTORE SWAP2 PUSH1 0x20 ADD SWAP2 PUSH2 0xC6F JUMP JUMPDEST DUP3 ADD SWAP2 SWAP1 PUSH0 MSTORE PUSH1 0x20 PUSH0 KECCAK256 SWAP1 JUMPDEST DUP2 SLOAD DUP2 MSTORE SWAP1 PUSH1 0x1 ADD SWAP1 PUSH1 0x20 ADD DUP1 DUP4 GT PUSH2 0xC52 JUMPI DUP3 SWAP1 SUB PUSH1 0x1F AND DUP3 ADD SWAP2 JUMPDEST POP POP POP POP POP SWAP1 DUP1 PUSH1 0x3 ADD SLOAD SWAP1 DUP1 PUSH1 0x4 ADD DUP1 SLOAD PUSH2 0xC8A SWAP1 PUSH2 0x2344 JUMP JUMPDEST DUP1 PUSH1 0x1F ADD PUSH1 0x20 DUP1 SWAP2 DIV MUL PUSH1 0x20 ADD PUSH1 0x40 MLOAD SWAP1 DUP2 ADD PUSH1 0x40 MSTORE DUP1 SWAP3 SWAP2 SWAP1 DUP2 DUP2 MSTORE PUSH1 0x20 ADD DUP3 DUP1 SLOAD PUSH2 0xCB6 SWAP1 PUSH2 0x2344 JUMP JUMPDEST DUP1 ISZERO PUSH2 0xD01 JUMPI DUP1 PUSH1 0x1F LT PUSH2 0xCD8 JUMPI PUSH2 0x100 DUP1 DUP4 SLOAD DIV MUL DUP4 MSTORE SWAP2 PUSH1 0x20 ADD SWAP2 PUSH2 0xD01 JUMP JUMPDEST DUP3 ADD SWAP2 SWAP1 PUSH0 MSTORE PUSH1 0x20 PUSH0 KECCAK256 SWAP1 JUMPDEST DUP2 SLOAD DUP2 MSTORE SWAP1 PUSH1 0x1 ADD SWAP1 PUSH1 0x20 ADD DUP1 DUP4 GT PUSH2 0xCE4 JUMPI DUP3 SWAP1 SUB PUSH1 0x1F AND DUP3 ADD SWAP2 JUMPDEST POP POP POP POP POP SWAP1 DUP1 PUSH1 0x5 ADD SLOAD SWAP1 DUP1 PUSH1 0x6 ADD PUSH0 SWAP1 SLOAD SWAP1 PUSH2 0x100 EXP SWAP1 DIV PUSH1 0xFF AND SWAP1 DUP1 PUSH1 0x7 ADD DUP1 SLOAD PUSH2 0xD2E SWAP1 PUSH2 0x2344 JUMP JUMPDEST DUP1 PUSH1 0x1F ADD PUSH1 0x20 DUP1 SWAP2 DIV MUL PUSH1 0x20 ADD PUSH1 0x40 MLOAD SWAP1 DUP2 ADD PUSH1 0x40 MSTORE DUP1 SWAP3 SWAP2 SWAP1 DUP2 DUP2 MSTORE PUSH1 0x20 ADD DUP3 DUP1 SLOAD PUSH2 0xD5A SWAP1 PUSH2 0x2344 JUMP JUMPDEST DUP1 ISZERO PUSH2 0xDA5 JUMPI DUP1 PUSH1 0x1F LT PUSH2 0xD7C JUMPI PUSH2 0x100 DUP1 DUP4 SLOAD DIV MUL DUP4 MSTORE SWAP2 PUSH1 0x20 ADD SWAP2 PUSH2 0xDA5 JUMP JUMPDEST DUP3 ADD SWAP2 SWAP1 PUSH0 MSTORE PUSH1 0x20 PUSH0 KECCAK256 SWAP1 JUMPDEST DUP2 SLOAD DUP2 MSTORE SWAP1 PUSH1 0x1 ADD SWAP1 PUSH1 0x20 ADD DUP1 DUP4 GT PUSH2 0xD88 JUMPI DUP3 SWAP1 SUB PUSH1 0x1F AND DUP3 ADD SWAP2 JUMPDEST POP POP POP POP POP SWAP1 DUP1 PUSH1 0x8 ADD DUP1 SLOAD PUSH2 0xDBA SWAP1 PUSH2 0x2344 JUMP JUMPDEST DUP1 PUSH1 0x1F ADD PUSH1 0x20 DUP1 SWAP2 DIV MUL PUSH1 0x20 ADD PUSH1 0x40 MLOAD SWAP1 DUP2 ADD PUSH1 0x40 MSTORE DUP1 SWAP3 SWAP2 SWAP1 DUP2 DUP2 MSTORE PUSH1 0x20 ADD DUP3 DUP1 SLOAD PUSH2 0xDE6 SWAP1 PUSH2 0x2344 JUMP JUMPDEST DUP1 ISZERO PUSH2 0xE31 JUMPI DUP1 PUSH1 0x1F LT PUSH2 0xE08 JUMPI PUSH2 0x100 DUP1 DUP4 SLOAD DIV MUL DUP4 MSTORE SWAP2 PUSH1 0x20 ADD SWAP2 PUSH2 0xE31 JUMP JUMPDEST DUP3 ADD SWAP2 SWAP1 PUSH0 MSTORE PUSH1 0x20 PUSH0 KECCAK256 SWAP1 JUMPDEST DUP2 SLOAD DUP2 MSTORE SWAP1 PUSH1 0x1 ADD SWAP1 PUSH1 0x20 ADD DUP1 DUP4 GT PUSH2 0xE14 JUMPI DUP3 SWAP1 SUB PUSH1 0x1F AND DUP3 ADD SWAP2 JUMPDEST POP POP POP POP POP SWAP1 POP DUP10 JUMP JUMPDEST PUSH1 0x1 SLOAD DUP2 JUMP JUMPDEST PUSH1 0x60 PUSH1 0x5 PUSH0 DUP4 PUSH20 0xFFFFFFFFFFFFFFFFFFFFFFFFFFFFFFFFFFFFFFFF AND PUSH20 0xFFFFFFFFFFFFFFFFFFFFFFFFFFFFFFFFFFFFFFFF AND DUP2 MSTORE PUSH1 0x20 ADD SWAP1 DUP2 MSTORE PUSH1 0x20 ADD PUSH0 KECCAK256 DUP1 SLOAD DUP1 PUSH1 0x20 MUL PUSH1 0x20 ADD PUSH1 0x40 MLOAD SWAP1 DUP2 ADD PUSH1 0x40 MSTORE DUP1 SWAP3 SWAP2 SWAP1 DUP2 DUP2 MSTORE PUSH1 0x20 ADD DUP3 DUP1 SLOAD DUP1 ISZERO PUSH2 0xEC8 JUMPI PUSH1 0x20 MUL DUP3 ADD SWAP2 SWAP1 PUSH0 MSTORE PUSH1 0x20 PUSH0 KECCAK256 SWAP1 JUMPDEST DUP2 SLOAD DUP2 MSTORE PUSH1 0x20 ADD SWAP1 PUSH1 0x1 ADD SWAP1 DUP1 DUP4 GT PUSH2 0xEB4 JUMPI JUMPDEST POP POP POP POP POP SWAP1 POP SWAP2 SWAP1 POP JUMP JUMPDEST PUSH1 0x5 PUSH1 0x20 MSTORE DUP2 PUSH0 MSTORE PUSH1 0x40 PUSH0 KECCAK256 DUP2 DUP2 SLOAD DUP2 LT PUSH2 0xEED JUMPI PUSH0 DUP1 REVERT JUMPDEST SWAP1 PUSH0 MSTORE PUSH1 0x20 PUSH0 KECCAK256 ADD PUSH0 SWAP2 POP SWAP2 POP POP SLOAD DUP2 JUMP JUMPDEST PUSH1 0x2 PUSH0 CALLER PUSH20 0xFFFFFFFFFFFFFFFFFFFFFFFFFFFFFFFFFFFFFFFF AND PUSH20 0xFFFFFFFFFFFFFFFFFFFFFFFFFFFFFFFFFFFFFFFF AND DUP2 MSTORE PUSH1 0x20 ADD SWAP1 DUP2 MSTORE PUSH1 0x20 ADD PUSH0 KECCAK256 PUSH1 0x2 ADD PUSH0 SWAP1 SLOAD SWAP1 PUSH2 0x100 EXP SWAP1 DIV PUSH1 0xFF AND ISZERO PUSH2 0xF8C JUMPI PUSH1 0x40 MLOAD PUSH32 0x8C379A000000000000000000000000000000000000000000000000000000000 DUP2 MSTORE PUSH1 0x4 ADD PUSH2 0xF83 SWAP1 PUSH2 0x2665 JUMP JUMPDEST PUSH1 0x40 MLOAD DUP1 SWAP2 SUB SWAP1 REVERT JUMPDEST PUSH1 0x40 MLOAD DUP1 PUSH1 0x60 ADD PUSH1 0x40 MSTORE DUP1 DUP4 DUP2 MSTORE PUSH1 0x20 ADD DUP3 DUP2 MSTORE PUSH1 0x20 ADD PUSH1 0x1 ISZERO ISZERO DUP2 MSTORE POP PUSH1 0x2 PUSH0 CALLER PUSH20 0xFFFFFFFFFFFFFFFFFFFFFFFFFFFFFFFFFFFFFFFF AND PUSH20 0xFFFFFFFFFFFFFFFFFFFFFFFFFFFFFFFFFFFFFFFF AND DUP2 MSTORE PUSH1 0x20 ADD SWAP1 DUP2 MSTORE PUSH1 0x20 ADD PUSH0 KECCAK256 PUSH0 DUP3 ADD MLOAD DUP2 PUSH0 ADD SWAP1 DUP2 PUSH2 0xFFA SWAP2 SWAP1 PUSH2 0x2820 JUMP JUMPDEST POP PUSH1 0x20 DUP3 ADD MLOAD DUP2 PUSH1 0x1 ADD SWAP1 DUP2 PUSH2 0x1010 SWAP2 SWAP1 PUSH2 0x2820 JUMP JUMPDEST POP PUSH1 0x40 DUP3 ADD MLOAD DUP2 PUSH1 0x2 ADD PUSH0 PUSH2 0x100 EXP DUP2 SLOAD DUP2 PUSH1 0xFF MUL NOT AND SWAP1 DUP4 ISZERO ISZERO MUL OR SWAP1 SSTORE POP SWAP1 POP POP CALLER PUSH20 0xFFFFFFFFFFFFFFFFFFFFFFFFFFFFFFFFFFFFFFFF AND PUSH32 0xD0E866F9EC66791D69B1422DC3426C84A714DE39AB5F547C095CE50EE5C9A2A8 DUP3 PUSH1 0x40 MLOAD PUSH2 0x1079 SWAP2 SWAP1 PUSH2 0x1BA7 JUMP JUMPDEST PUSH1 0x40 MLOAD DUP1 SWAP2 SUB SWAP1 LOG2 POP POP JUMP JUMPDEST PUSH1 0x2 PUSH1 0x20 MSTORE DUP1 PUSH0 MSTORE PUSH1 0x40 PUSH0 KECCAK256 PUSH0 SWAP2 POP SWAP1 POP DUP1 PUSH0 ADD DUP1 SLOAD PUSH2 0x10A4 SWAP1 PUSH2 0x2344 JUMP JUMPDEST DUP1 PUSH1 0x1F ADD PUSH1 0x20 DUP1 SWAP2 DIV MUL PUSH1 0x20 ADD PUSH1 0x40 MLOAD SWAP1 DUP2 ADD PUSH1 0x40 MSTORE DUP1 SWAP3 SWAP2 SWAP1 DUP2 DUP2 MSTORE PUSH1 0x20 ADD DUP3 DUP1 SLOAD PUSH2 0x10D0 SWAP1 PUSH2 0x2344 JUMP JUMPDEST DUP1 ISZERO PUSH2 0x111B JUMPI DUP1 PUSH1 0x1F LT PUSH2 0x10F2 JUMPI PUSH2 0x100 DUP1 DUP4 SLOAD DIV MUL DUP4 MSTORE SWAP2 PUSH1 0x20 ADD SWAP2 PUSH2 0x111B JUMP JUMPDEST DUP3 ADD SWAP2 SWAP1 PUSH0 MSTORE PUSH1 0x20 PUSH0 KECCAK256 SWAP1 JUMPDEST DUP2 SLOAD DUP2 MSTORE SWAP1 PUSH1 0x1 ADD SWAP1 PUSH1 0x20 ADD DUP1 DUP4 GT PUSH2 0x10FE JUMPI DUP3 SWAP1 SUB PUSH1 0x1F AND DUP3 ADD SWAP2 JUMPDEST POP POP POP POP POP SWAP1 DUP1 PUSH1 0x1 ADD DUP1 SLOAD PUSH2 0x1130 SWAP1 PUSH2 0x2344 JUMP JUMPDEST DUP1 PUSH1 0x1F ADD PUSH1 0x20 DUP1 SWAP2 DIV MUL PUSH1 0x20 ADD PUSH1 0x40 MLOAD SWAP1 DUP2 ADD PUSH1 0x40 MSTORE DUP1 SWAP3 SWAP2 SWAP1 DUP2 DUP2 MSTORE PUSH1 0x20 ADD DUP3 DUP1 SLOAD PUSH2 0x115C SWAP1 PUSH2 0x2344 JUMP JUMPDEST DUP1 ISZERO PUSH2 0x11A7 JUMPI DUP1 PUSH1 0x1F LT PUSH2 0x117E JUMPI PUSH2 0x100 DUP1 DUP4 SLOAD DIV MUL DUP4 MSTORE SWAP2 PUSH1 0x20 ADD SWAP2 PUSH2 0x11A7 JUMP JUMPDEST DUP3 ADD SWAP2 SWAP1 PUSH0 MSTORE PUSH1 0x20 PUSH0 KECCAK256 SWAP1 JUMPDEST DUP2 SLOAD DUP2 MSTORE SWAP1 PUSH1 0x1 ADD SWAP1 PUSH1 0x20 ADD DUP1 DUP4 GT PUSH2 0x118A JUMPI DUP3 SWAP1 SUB PUSH1 0x1F AND DUP3 ADD SWAP2 JUMPDEST POP POP POP POP POP SWAP1 DUP1 PUSH1 0x2 ADD PUSH0 SWAP1 SLOAD SWAP1 PUSH2 0x100 EXP SWAP1 DIV PUSH1 0xFF AND SWAP1 POP DUP4 JUMP JUMPDEST PUSH1 0x6 PUSH1 0x20 MSTORE DUP1 PUSH0 MSTORE PUSH1 0x40 PUSH0 KECCAK256 PUSH0 SWAP2 POP SWAP1 POP SLOAD DUP2 JUMP JUMPDEST PUSH0 DUP1 SLOAD SWAP1 PUSH2 0x100 EXP SWAP1 DIV PUSH20 0xFFFFFFFFFFFFFFFFFFFFFFFFFFFFFFFFFFFFFFFF AND PUSH20 0xFFFFFFFFFFFFFFFFFFFFFFFFFFFFFFFFFFFFFFFF AND CALLER PUSH20 0xFFFFFFFFFFFFFFFFFFFFFFFFFFFFFFFFFFFFFFFF AND EQ PUSH2 0x1265 JUMPI PUSH1 0x40 MLOAD PUSH32 0x8C379A000000000000000000000000000000000000000000000000000000000 DUP2 MSTORE PUSH1 0x4 ADD PUSH2 0x125C SWAP1 PUSH2 0x25D6 JUMP JUMPDEST PUSH1 0x40 MLOAD DUP1 SWAP2 SUB SWAP1 REVERT JUMPDEST PUSH0 PUSH1 0x3 PUSH0 DUP6 DUP2 MSTORE PUSH1 0x20 ADD SWAP1 DUP2 MSTORE PUSH1 0x20 ADD PUSH0 KECCAK256 PUSH0 ADD SLOAD SUB PUSH2 0x12BA JUMPI PUSH1 0x40 MLOAD PUSH32 0x8C379A000000000000000000000000000000000000000000000000000000000 DUP2 MSTORE PUSH1 0x4 ADD PUSH2 0x12B1 SWAP1 PUSH2 0x2939 JUMP JUMPDEST PUSH1 0x40 MLOAD DUP1 SWAP2 SUB SWAP1 REVERT JUMPDEST DUP2 PUSH1 0x3 PUSH0 DUP6 DUP2 MSTORE PUSH1 0x20 ADD SWAP1 DUP2 MSTORE PUSH1 0x20 ADD PUSH0 KECCAK256 PUSH1 0x6 ADD PUSH0 PUSH2 0x100 EXP DUP2 SLOAD DUP2 PUSH1 0xFF MUL NOT AND SWAP1 DUP4 ISZERO ISZERO MUL OR SWAP1 SSTORE POP DUP1 PUSH1 0x3 PUSH0 DUP6 DUP2 MSTORE PUSH1 0x20 ADD SWAP1 DUP2 MSTORE PUSH1 0x20 ADD PUSH0 KECCAK256 PUSH1 0x7 ADD SWAP1 DUP2 PUSH2 0x1306 SWAP2 SWAP1 PUSH2 0x2820 JUMP JUMPDEST POP DUP3 PUSH32 0x57E52AC741163BD0F43E4482553BF284978970990253B8064AC90F13934650F6 DUP4 DUP4 PUSH1 0x40 MLOAD PUSH2 0x1339 SWAP3 SWAP2 SWAP1 PUSH2 0x2957 JUMP JUMPDEST PUSH1 0x40 MLOAD DUP1 SWAP2 SUB SWAP1 LOG2 POP POP POP JUMP JUMPDEST PUSH1 0x60 PUSH1 0x4 PUSH0 DUP4 DUP2 MSTORE PUSH1 0x20 ADD SWAP1 DUP2 MSTORE PUSH1 0x20 ADD PUSH0 KECCAK256 DUP1 SLOAD DUP1 PUSH1 0x20 MUL PUSH1 0x20 ADD PUSH1 0x40 MLOAD SWAP1 DUP2 ADD PUSH1 0x40 MSTORE DUP1 SWAP3 SWAP2 SWAP1 DUP2 DUP2 MSTORE PUSH1 0x20 ADD PUSH0 SWAP1 JUMPDEST DUP3 DUP3 LT ISZERO PUSH2 0x1424 JUMPI DUP4 DUP3 SWAP1 PUSH0 MSTORE PUSH1 0x20 PUSH0 KECCAK256 SWAP1 PUSH1 0x5 MUL ADD PUSH1 0x40 MLOAD DUP1 PUSH1 0xA0 ADD PUSH1 0x40 MSTORE SWAP1 DUP2 PUSH0 DUP3 ADD SLOAD DUP2 MSTORE PUSH1 0x20 ADD PUSH1 0x1 DUP3 ADD PUSH0 SWAP1 SLOAD SWAP1 PUSH2 0x100 EXP SWAP1 DIV PUSH20 0xFFFFFFFFFFFFFFFFFFFFFFFFFFFFFFFFFFFFFFFF AND PUSH20 0xFFFFFFFFFFFFFFFFFFFFFFFFFFFFFFFFFFFFFFFF AND PUSH20 0xFFFFFFFFFFFFFFFFFFFFFFFFFFFFFFFFFFFFFFFF AND DUP2 MSTORE PUSH1 0x20 ADD PUSH1 0x2 DUP3 ADD SLOAD DUP2 MSTORE PUSH1 0x20 ADD PUSH1 0x3 DUP3 ADD SLOAD DUP2 MSTORE PUSH1 0x20 ADD PUSH1 0x4 DUP3 ADD SLOAD DUP2 MSTORE POP POP DUP2 MSTORE PUSH1 0x20 ADD SWAP1 PUSH1 0x1 ADD SWAP1 PUSH2 0x1378 JUMP JUMPDEST POP POP POP POP SWAP1 POP SWAP2 SWAP1 POP JUMP JUMPDEST PUSH1 0x2 PUSH0 CALLER PUSH20 0xFFFFFFFFFFFFFFFFFFFFFFFFFFFFFFFFFFFFFFFF AND PUSH20 0xFFFFFFFFFFFFFFFFFFFFFFFFFFFFFFFFFFFFFFFF AND DUP2 MSTORE PUSH1 0x20 ADD SWAP1 DUP2 MSTORE PUSH1 0x20 ADD PUSH0 KECCAK256 PUSH1 0x2 ADD PUSH0 SWAP1 SLOAD SWAP1 PUSH2 0x100 EXP SWAP1 DIV PUSH1 0xFF AND PUSH2 0x14BB JUMPI PUSH1 0x40 MLOAD PUSH32 0x8C379A000000000000000000000000000000000000000000000000000000000 DUP2 MSTORE PUSH1 0x4 ADD PUSH2 0x14B2 SWAP1 PUSH2 0x29CF JUMP JUMPDEST PUSH1 0x40 MLOAD DUP1 SWAP2 SUB SWAP1 REVERT JUMPDEST PUSH0 DUP3 GT PUSH2 0x14FD JUMPI PUSH1 0x40 MLOAD PUSH32 0x8C379A000000000000000000000000000000000000000000000000000000000 DUP2 MSTORE PUSH1 0x4 ADD PUSH2 0x14F4 SWAP1 PUSH2 0x24EE JUMP JUMPDEST PUSH1 0x40 MLOAD DUP1 SWAP2 SUB SWAP1 REVERT JUMPDEST PUSH1 0x1 PUSH0 DUP2 SLOAD DUP1 SWAP3 SWAP2 SWAP1 PUSH2 0x150F SWAP1 PUSH2 0x29ED JUMP JUMPDEST SWAP2 SWAP1 POP SSTORE POP PUSH0 PUSH2 0x1520 PUSH1 0x1 SLOAD PUSH2 0x17E1 JUMP JUMPDEST PUSH1 0x40 MLOAD PUSH1 0x20 ADD PUSH2 0x1530 SWAP2 SWAP1 PUSH2 0x2AB8 JUMP JUMPDEST PUSH1 0x40 MLOAD PUSH1 0x20 DUP2 DUP4 SUB SUB DUP2 MSTORE SWAP1 PUSH1 0x40 MSTORE SWAP1 POP PUSH1 0x40 MLOAD DUP1 PUSH2 0x120 ADD PUSH1 0x40 MSTORE DUP1 PUSH1 0x1 SLOAD DUP2 MSTORE PUSH1 0x20 ADD CALLER PUSH20 0xFFFFFFFFFFFFFFFFFFFFFFFFFFFFFFFFFFFFFFFF AND DUP2 MSTORE PUSH1 0x20 ADD DUP6 DUP2 MSTORE PUSH1 0x20 ADD DUP5 DUP2 MSTORE PUSH1 0x20 ADD DUP4 DUP2 MSTORE PUSH1 0x20 ADD TIMESTAMP DUP2 MSTORE PUSH1 0x20 ADD PUSH0 ISZERO ISZERO DUP2 MSTORE PUSH1 0x20 ADD PUSH1 0x40 MLOAD DUP1 PUSH1 0x20 ADD PUSH1 0x40 MSTORE DUP1 PUSH0 DUP2 MSTORE POP DUP2 MSTORE PUSH1 0x20 ADD DUP3 DUP2 MSTORE POP PUSH1 0x3 PUSH0 PUSH1 0x1 SLOAD DUP2 MSTORE PUSH1 0x20 ADD SWAP1 DUP2 MSTORE PUSH1 0x20 ADD PUSH0 KECCAK256 PUSH0 DUP3 ADD MLOAD DUP2 PUSH0 ADD SSTORE PUSH1 0x20 DUP3 ADD MLOAD DUP2 PUSH1 0x1 ADD PUSH0 PUSH2 0x100 EXP DUP2 SLOAD DUP2 PUSH20 0xFFFFFFFFFFFFFFFFFFFFFFFFFFFFFFFFFFFFFFFF MUL NOT AND SWAP1 DUP4 PUSH20 0xFFFFFFFFFFFFFFFFFFFFFFFFFFFFFFFFFFFFFFFF AND MUL OR SWAP1 SSTORE POP PUSH1 0x40 DUP3 ADD MLOAD DUP2 PUSH1 0x2 ADD SWAP1 DUP2 PUSH2 0x161F SWAP2 SWAP1 PUSH2 0x2820 JUMP JUMPDEST POP PUSH1 0x60 DUP3 ADD MLOAD DUP2 PUSH1 0x3 ADD SSTORE PUSH1 0x80 DUP3 ADD MLOAD DUP2 PUSH1 0x4 ADD SWAP1 DUP2 PUSH2 0x163F SWAP2 SWAP1 PUSH2 0x2820 JUMP JUMPDEST POP PUSH1 0xA0 DUP3 ADD MLOAD DUP2 PUSH1 0x5 ADD SSTORE PUSH1 0xC0 DUP3 ADD MLOAD DUP2 PUSH1 0x6 ADD PUSH0 PUSH2 0x100 EXP DUP2 SLOAD DUP2 PUSH1 0xFF MUL NOT AND SWAP1 DUP4 ISZERO ISZERO MUL OR SWAP1 SSTORE POP PUSH1 0xE0 DUP3 ADD MLOAD DUP2 PUSH1 0x7 ADD SWAP1 DUP2 PUSH2 0x167E SWAP2 SWAP1 PUSH2 0x2820 JUMP JUMPDEST POP PUSH2 0x100 DUP3 ADD MLOAD DUP2 PUSH1 0x8 ADD SWAP1 DUP2 PUSH2 0x1695 SWAP2 SWAP1 PUSH2 0x2820 JUMP JUMPDEST POP SWAP1 POP POP PUSH1 0x5 PUSH0 CALLER PUSH20 0xFFFFFFFFFFFFFFFFFFFFFFFFFFFFFFFFFFFFFFFF AND PUSH20 0xFFFFFFFFFFFFFFFFFFFFFFFFFFFFFFFFFFFFFFFF AND DUP2 MSTORE PUSH1 0x20 ADD SWAP1 DUP2 MSTORE PUSH1 0x20 ADD PUSH0 KECCAK256 PUSH1 0x1 SLOAD SWAP1 DUP1 PUSH1 0x1 DUP2 SLOAD ADD DUP1 DUP3 SSTORE DUP1 SWAP2 POP POP PUSH1 0x1 SWAP1 SUB SWAP1 PUSH0 MSTORE PUSH1 0x20 PUSH0 KECCAK256 ADD PUSH0 SWAP1 SWAP2 SWAP1 SWAP2 SWAP1 SWAP2 POP SSTORE CALLER PUSH20 0xFFFFFFFFFFFFFFFFFFFFFFFFFFFFFFFFFFFFFFFF AND PUSH1 0x1 SLOAD PUSH32 0xD48AB54D3306AFE00FEC69EBCC5266641502A7A0B26B07EF97AF999F1D762146 DUP4 PUSH1 0x40 MLOAD PUSH2 0x1745 SWAP2 SWAP1 PUSH2 0x1BA7 JUMP JUMPDEST PUSH1 0x40 MLOAD DUP1 SWAP2 SUB SWAP1 LOG3 POP POP POP POP JUMP JUMPDEST PUSH1 0x4 PUSH1 0x20 MSTORE DUP2 PUSH0 MSTORE PUSH1 0x40 PUSH0 KECCAK256 DUP2 DUP2 SLOAD DUP2 LT PUSH2 0x176C JUMPI PUSH0 DUP1 REVERT JUMPDEST SWAP1 PUSH0 MSTORE PUSH1 0x20 PUSH0 KECCAK256 SWAP1 PUSH1 0x5 MUL ADD PUSH0 SWAP2 POP SWAP2 POP POP DUP1 PUSH0 ADD SLOAD SWAP1 DUP1 PUSH1 0x1 ADD PUSH0 SWAP1 SLOAD SWAP1 PUSH2 0x100 EXP SWAP1 DIV PUSH20 0xFFFFFFFFFFFFFFFFFFFFFFFFFFFFFFFFFFFFFFFF AND SWAP1 DUP1 PUSH1 0x2 ADD SLOAD SWAP1 DUP1 PUSH1 0x3 ADD SLOAD SWAP1 DUP1 PUSH1 0x4 ADD SLOAD SWAP1 POP DUP6 JUMP JUMPDEST PUSH0 DUP1 SLOAD SWAP1 PUSH2 0x100 EXP SWAP1 DIV PUSH20 0xFFFFFFFFFFFFFFFFFFFFFFFFFFFFFFFFFFFFFFFF AND DUP2 JUMP JUMPDEST PUSH1 0x60 PUSH0 DUP3 SUB PUSH2 0x1827 JUMPI PUSH1 0x40 MLOAD DUP1 PUSH1 0x40 ADD PUSH1 0x40 MSTORE DUP1 PUSH1 0x1 DUP2 MSTORE PUSH1 0x20 ADD PUSH32 0x3000000000000000000000000000000000000000000000000000000000000000 DUP2 MSTORE POP SWAP1 POP PUSH2 0x1935 JUMP JUMPDEST PUSH0 DUP3 SWAP1 POP PUSH0 JUMPDEST PUSH0 DUP3 EQ PUSH2 0x1856 JUMPI DUP1 DUP1 PUSH2 0x183F SWAP1 PUSH2 0x29ED JUMP JUMPDEST SWAP2 POP POP PUSH1 0xA DUP3 PUSH2 0x184F SWAP2 SWAP1 PUSH2 0x2B06 JUMP JUMPDEST SWAP2 POP PUSH2 0x182D JUMP JUMPDEST PUSH0 DUP2 PUSH8 0xFFFFFFFFFFFFFFFF DUP2 GT ISZERO PUSH2 0x1871 JUMPI PUSH2 0x1870 PUSH2 0x1DCF JUMP JUMPDEST JUMPDEST PUSH1 0x40 MLOAD SWAP1 DUP1 DUP3 MSTORE DUP1 PUSH1 0x1F ADD PUSH1 0x1F NOT AND PUSH1 0x20 ADD DUP3 ADD PUSH1 0x40 MSTORE DUP1 ISZERO PUSH2 0x18A3 JUMPI DUP2 PUSH1 0x20 ADD PUSH1 0x1 DUP3 MUL DUP1 CALLDATASIZE DUP4 CALLDATACOPY DUP1 DUP3 ADD SWAP2 POP POP SWAP1 POP JUMPDEST POP SWAP1 POP JUMPDEST PUSH0 DUP6 EQ PUSH2 0x192E JUMPI PUSH1 0x1 DUP3 PUSH2 0x18BB SWAP2 SWAP1 PUSH2 0x2471 JUMP JUMPDEST SWAP2 POP PUSH1 0xA DUP6 PUSH2 0x18CA SWAP2 SWAP1 PUSH2 0x2B36 JUMP JUMPDEST PUSH1 0x30 PUSH2 0x18D6 SWAP2 SWAP1 PUSH2 0x250C JUMP JUMPDEST PUSH1 0xF8 SHL DUP2 DUP4 DUP2 MLOAD DUP2 LT PUSH2 0x18EC JUMPI PUSH2 0x18EB PUSH2 0x2B66 JUMP JUMPDEST JUMPDEST PUSH1 0x20 ADD ADD SWAP1 PUSH31 0xFFFFFFFFFFFFFFFFFFFFFFFFFFFFFFFFFFFFFFFFFFFFFFFFFFFFFFFFFFFFFF NOT AND SWAP1 DUP2 PUSH0 BYTE SWAP1 MSTORE8 POP PUSH1 0xA DUP6 PUSH2 0x1927 SWAP2 SWAP1 PUSH2 0x2B06 JUMP JUMPDEST SWAP5 POP PUSH2 0x18A7 JUMP JUMPDEST DUP1 SWAP4 POP POP POP POP JUMPDEST SWAP2 SWAP1 POP JUMP JUMPDEST PUSH0 PUSH1 0x40 MLOAD SWAP1 POP SWAP1 JUMP JUMPDEST PUSH0 DUP1 REVERT JUMPDEST PUSH0 DUP1 REVERT JUMPDEST PUSH0 DUP2 SWAP1 POP SWAP2 SWAP1 POP JUMP JUMPDEST PUSH2 0x195D DUP2 PUSH2 0x194B JUMP JUMPDEST DUP2 EQ PUSH2 0x1967 JUMPI PUSH0 DUP1 REVERT JUMPDEST POP JUMP JUMPDEST PUSH0 DUP2 CALLDATALOAD SWAP1 POP PUSH2 0x1978 DUP2 PUSH2 0x1954 JUMP JUMPDEST SWAP3 SWAP2 POP POP JUMP JUMPDEST PUSH0 PUSH1 0x20 DUP3 DUP5 SUB SLT ISZERO PUSH2 0x1993 JUMPI PUSH2 0x1992 PUSH2 0x1943 JUMP JUMPDEST JUMPDEST PUSH0 PUSH2 0x19A0 DUP5 DUP3 DUP6 ADD PUSH2 0x196A JUMP JUMPDEST SWAP2 POP POP SWAP3 SWAP2 POP POP JUMP JUMPDEST PUSH0 PUSH20 0xFFFFFFFFFFFFFFFFFFFFFFFFFFFFFFFFFFFFFFFF DUP3 AND SWAP1 POP SWAP2 SWAP1 POP JUMP JUMPDEST PUSH0 PUSH2 0x19D2 DUP3 PUSH2 0x19A9 JUMP JUMPDEST SWAP1 POP SWAP2 SWAP1 POP JUMP JUMPDEST PUSH2 0x19E2 DUP2 PUSH2 0x19C8 JUMP JUMPDEST DUP3 MSTORE POP POP JUMP JUMPDEST PUSH0 DUP2 MLOAD SWAP1 POP SWAP2 SWAP1 POP JUMP JUMPDEST PUSH0 DUP3 DUP3 MSTORE PUSH1 0x20 DUP3 ADD SWAP1 POP SWAP3 SWAP2 POP POP JUMP JUMPDEST DUP3 DUP2 DUP4 MCOPY PUSH0 DUP4 DUP4 ADD MSTORE POP POP POP JUMP JUMPDEST PUSH0 PUSH1 0x1F NOT PUSH1 0x1F DUP4 ADD AND SWAP1 POP SWAP2 SWAP1 POP JUMP JUMPDEST PUSH0 PUSH2 0x1A2A DUP3 PUSH2 0x19E8 JUMP JUMPDEST PUSH2 0x1A34 DUP2 DUP6 PUSH2 0x19F2 JUMP JUMPDEST SWAP4 POP PUSH2 0x1A44 DUP2 DUP6 PUSH1 0x20 DUP7 ADD PUSH2 0x1A02 JUMP JUMPDEST PUSH2 0x1A4D DUP2 PUSH2 0x1A10 JUMP JUMPDEST DUP5 ADD SWAP2 POP POP SWAP3 SWAP2 POP POP JUMP JUMPDEST PUSH2 0x1A61 DUP2 PUSH2 0x194B JUMP JUMPDEST DUP3 MSTORE POP POP JUMP JUMPDEST PUSH0 DUP2 ISZERO ISZERO SWAP1 POP SWAP2 SWAP1 POP JUMP JUMPDEST PUSH2 0x1A7B DUP2 PUSH2 0x1A67 JUMP JUMPDEST DUP3 MSTORE POP POP JUMP JUMPDEST PUSH0 PUSH2 0x100 DUP3 ADD SWAP1 POP PUSH2 0x1A95 PUSH0 DUP4 ADD DUP12 PUSH2 0x19D9 JUMP JUMPDEST DUP2 DUP2 SUB PUSH1 0x20 DUP4 ADD MSTORE PUSH2 0x1AA7 DUP2 DUP11 PUSH2 0x1A20 JUMP JUMPDEST SWAP1 POP PUSH2 0x1AB6 PUSH1 0x40 DUP4 ADD DUP10 PUSH2 0x1A58 JUMP JUMPDEST DUP2 DUP2 SUB PUSH1 0x60 DUP4 ADD MSTORE PUSH2 0x1AC8 DUP2 DUP9 PUSH2 0x1A20 JUMP JUMPDEST SWAP1 POP PUSH2 0x1AD7 PUSH1 0x80 DUP4 ADD DUP8 PUSH2 0x1A58 JUMP JUMPDEST PUSH2 0x1AE4 PUSH1 0xA0 DUP4 ADD DUP7 PUSH2 0x1A72 JUMP JUMPDEST DUP2 DUP2 SUB PUSH1 0xC0 DUP4 ADD MSTORE PUSH2 0x1AF6 DUP2 DUP6 PUSH2 0x1A20 JUMP JUMPDEST SWAP1 POP DUP2 DUP2 SUB PUSH1 0xE0 DUP4 ADD MSTORE PUSH2 0x1B0A DUP2 DUP5 PUSH2 0x1A20 JUMP JUMPDEST SWAP1 POP SWAP10 SWAP9 POP POP POP POP POP POP POP POP POP JUMP JUMPDEST PUSH2 0x1B22 DUP2 PUSH2 0x19C8 JUMP JUMPDEST DUP2 EQ PUSH2 0x1B2C JUMPI PUSH0 DUP1 REVERT JUMPDEST POP JUMP JUMPDEST PUSH0 DUP2 CALLDATALOAD SWAP1 POP PUSH2 0x1B3D DUP2 PUSH2 0x1B19 JUMP JUMPDEST SWAP3 SWAP2 POP POP JUMP JUMPDEST PUSH0 DUP1 PUSH0 DUP1 PUSH1 0x80 DUP6 DUP8 SUB SLT ISZERO PUSH2 0x1B5B JUMPI PUSH2 0x1B5A PUSH2 0x1943 JUMP JUMPDEST JUMPDEST PUSH0 PUSH2 0x1B68 DUP8 DUP3 DUP9 ADD PUSH2 0x196A JUMP JUMPDEST SWAP5 POP POP PUSH1 0x20 PUSH2 0x1B79 DUP8 DUP3 DUP9 ADD PUSH2 0x1B2F JUMP JUMPDEST SWAP4 POP POP PUSH1 0x40 PUSH2 0x1B8A DUP8 DUP3 DUP9 ADD PUSH2 0x196A JUMP JUMPDEST SWAP3 POP POP PUSH1 0x60 PUSH2 0x1B9B DUP8 DUP3 DUP9 ADD PUSH2 0x196A JUMP JUMPDEST SWAP2 POP POP SWAP3 SWAP6 SWAP2 SWAP5 POP SWAP3 POP JUMP JUMPDEST PUSH0 PUSH1 0x20 DUP3 ADD SWAP1 POP DUP2 DUP2 SUB PUSH0 DUP4 ADD MSTORE PUSH2 0x1BBF DUP2 DUP5 PUSH2 0x1A20 JUMP JUMPDEST SWAP1 POP SWAP3 SWAP2 POP POP JUMP JUMPDEST PUSH0 PUSH2 0x120 DUP3 ADD SWAP1 POP PUSH2 0x1BDB PUSH0 DUP4 ADD DUP13 PUSH2 0x1A58 JUMP JUMPDEST PUSH2 0x1BE8 PUSH1 0x20 DUP4 ADD DUP12 PUSH2 0x19D9 JUMP JUMPDEST DUP2 DUP2 SUB PUSH1 0x40 DUP4 ADD MSTORE PUSH2 0x1BFA DUP2 DUP11 PUSH2 0x1A20 JUMP JUMPDEST SWAP1 POP PUSH2 0x1C09 PUSH1 0x60 DUP4 ADD DUP10 PUSH2 0x1A58 JUMP JUMPDEST DUP2 DUP2 SUB PUSH1 0x80 DUP4 ADD MSTORE PUSH2 0x1C1B DUP2 DUP9 PUSH2 0x1A20 JUMP JUMPDEST SWAP1 POP PUSH2 0x1C2A PUSH1 0xA0 DUP4 ADD DUP8 PUSH2 0x1A58 JUMP JUMPDEST PUSH2 0x1C37 PUSH1 0xC0 DUP4 ADD DUP7 PUSH2 0x1A72 JUMP JUMPDEST DUP2 DUP2 SUB PUSH1 0xE0 DUP4 ADD MSTORE PUSH2 0x1C49 DUP2 DUP6 PUSH2 0x1A20 JUMP JUMPDEST SWAP1 POP DUP2 DUP2 SUB PUSH2 0x100 DUP4 ADD MSTORE PUSH2 0x1C5E DUP2 DUP5 PUSH2 0x1A20 JUMP JUMPDEST SWAP1 POP SWAP11 SWAP10 POP POP POP POP POP POP POP POP POP POP JUMP JUMPDEST PUSH0 PUSH1 0x20 DUP3 ADD SWAP1 POP PUSH2 0x1C81 PUSH0 DUP4 ADD DUP5 PUSH2 0x1A58 JUMP JUMPDEST SWAP3 SWAP2 POP POP JUMP JUMPDEST PUSH0 PUSH1 0x20 DUP3 DUP5 SUB SLT ISZERO PUSH2 0x1C9C JUMPI PUSH2 0x1C9B PUSH2 0x1943 JUMP JUMPDEST JUMPDEST PUSH0 PUSH2 0x1CA9 DUP5 DUP3 DUP6 ADD PUSH2 0x1B2F JUMP JUMPDEST SWAP2 POP POP SWAP3 SWAP2 POP POP JUMP JUMPDEST PUSH0 DUP2 MLOAD SWAP1 POP SWAP2 SWAP1 POP JUMP JUMPDEST PUSH0 DUP3 DUP3 MSTORE PUSH1 0x20 DUP3 ADD SWAP1 POP SWAP3 SWAP2 POP POP JUMP JUMPDEST PUSH0 DUP2 SWAP1 POP PUSH1 0x20 DUP3 ADD SWAP1 POP SWAP2 SWAP1 POP JUMP JUMPDEST PUSH2 0x1CE4 DUP2 PUSH2 0x194B JUMP JUMPDEST DUP3 MSTORE POP POP JUMP JUMPDEST PUSH0 PUSH2 0x1CF5 DUP4 DUP4 PUSH2 0x1CDB JUMP JUMPDEST PUSH1 0x20 DUP4 ADD SWAP1 POP SWAP3 SWAP2 POP POP JUMP JUMPDEST PUSH0 PUSH1 0x20 DUP3 ADD SWAP1 POP SWAP2 SWAP1 POP JUMP JUMPDEST PUSH0 PUSH2 0x1D17 DUP3 PUSH2 0x1CB2 JUMP JUMPDEST PUSH2 0x1D21 DUP2 DUP6 PUSH2 0x1CBC JUMP JUMPDEST SWAP4 POP PUSH2 0x1D2C DUP4 PUSH2 0x1CCC JUMP JUMPDEST DUP1 PUSH0 JUMPDEST DUP4 DUP2 LT ISZERO PUSH2 0x1D5C JUMPI DUP2 MLOAD PUSH2 0x1D43 DUP9 DUP3 PUSH2 0x1CEA JUMP JUMPDEST SWAP8 POP PUSH2 0x1D4E DUP4 PUSH2 0x1D01 JUMP JUMPDEST SWAP3 POP POP PUSH1 0x1 DUP2 ADD SWAP1 POP PUSH2 0x1D2F JUMP JUMPDEST POP DUP6 SWAP4 POP POP POP POP SWAP3 SWAP2 POP POP JUMP JUMPDEST PUSH0 PUSH1 0x20 DUP3 ADD SWAP1 POP DUP2 DUP2 SUB PUSH0 DUP4 ADD MSTORE PUSH2 0x1D81 DUP2 DUP5 PUSH2 0x1D0D JUMP JUMPDEST SWAP1 POP SWAP3 SWAP2 POP POP JUMP JUMPDEST PUSH0 DUP1 PUSH1 0x40 DUP4 DUP6 SUB SLT ISZERO PUSH2 0x1D9F JUMPI PUSH2 0x1D9E PUSH2 0x1943 JUMP JUMPDEST JUMPDEST PUSH0 PUSH2 0x1DAC DUP6 DUP3 DUP7 ADD PUSH2 0x1B2F JUMP JUMPDEST SWAP3 POP POP PUSH1 0x20 PUSH2 0x1DBD DUP6 DUP3 DUP7 ADD PUSH2 0x196A JUMP JUMPDEST SWAP2 POP POP SWAP3 POP SWAP3 SWAP1 POP JUMP JUMPDEST PUSH0 DUP1 REVERT JUMPDEST PUSH0 DUP1 REVERT JUMPDEST PUSH32 0x4E487B7100000000000000000000000000000000000000000000000000000000 PUSH0 MSTORE PUSH1 0x41 PUSH1 0x4 MSTORE PUSH1 0x24 PUSH0 REVERT JUMPDEST PUSH2 0x1E05 DUP3 PUSH2 0x1A10 JUMP JUMPDEST DUP2 ADD DUP2 DUP2 LT PUSH8 0xFFFFFFFFFFFFFFFF DUP3 GT OR ISZERO PUSH2 0x1E24 JUMPI PUSH2 0x1E23 PUSH2 0x1DCF JUMP JUMPDEST JUMPDEST DUP1 PUSH1 0x40 MSTORE POP POP POP JUMP JUMPDEST PUSH0 PUSH2 0x1E36 PUSH2 0x193A JUMP JUMPDEST SWAP1 POP PUSH2 0x1E42 DUP3 DUP3 PUSH2 0x1DFC JUMP JUMPDEST SWAP2 SWAP1 POP JUMP JUMPDEST PUSH0 PUSH8 0xFFFFFFFFFFFFFFFF DUP3 GT ISZERO PUSH2 0x1E61 JUMPI PUSH2 0x1E60 PUSH2 0x1DCF JUMP JUMPDEST JUMPDEST PUSH2 0x1E6A DUP3 PUSH2 0x1A10 JUMP JUMPDEST SWAP1 POP PUSH1 0x20 DUP2 ADD SWAP1 POP SWAP2 SWAP1 POP JUMP JUMPDEST DUP3 DUP2 DUP4 CALLDATACOPY PUSH0 DUP4 DUP4 ADD MSTORE POP POP POP JUMP JUMPDEST PUSH0 PUSH2 0x1E97 PUSH2 0x1E92 DUP5 PUSH2 0x1E47 JUMP JUMPDEST PUSH2 0x1E2D JUMP JUMPDEST SWAP1 POP DUP3 DUP2 MSTORE PUSH1 0x20 DUP2 ADD DUP5 DUP5 DUP5 ADD GT ISZERO PUSH2 0x1EB3 JUMPI PUSH2 0x1EB2 PUSH2 0x1DCB JUMP JUMPDEST JUMPDEST PUSH2 0x1EBE DUP5 DUP3 DUP6 PUSH2 0x1E77 JUMP JUMPDEST POP SWAP4 SWAP3 POP POP POP JUMP JUMPDEST PUSH0 DUP3 PUSH1 0x1F DUP4 ADD SLT PUSH2 0x1EDA JUMPI PUSH2 0x1ED9 PUSH2 0x1DC7 JUMP JUMPDEST JUMPDEST DUP2 CALLDATALOAD PUSH2 0x1EEA DUP5 DUP3 PUSH1 0x20 DUP7 ADD PUSH2 0x1E85 JUMP JUMPDEST SWAP2 POP POP SWAP3 SWAP2 POP POP JUMP JUMPDEST PUSH0 DUP1 PUSH1 0x40 DUP4 DUP6 SUB SLT ISZERO PUSH2 0x1F09 JUMPI PUSH2 0x1F08 PUSH2 0x1943 JUMP JUMPDEST JUMPDEST PUSH0 DUP4 ADD CALLDATALOAD PUSH8 0xFFFFFFFFFFFFFFFF DUP2 GT ISZERO PUSH2 0x1F26 JUMPI PUSH2 0x1F25 PUSH2 0x1947 JUMP JUMPDEST JUMPDEST PUSH2 0x1F32 DUP6 DUP3 DUP7 ADD PUSH2 0x1EC6 JUMP JUMPDEST SWAP3 POP POP PUSH1 0x20 DUP4 ADD CALLDATALOAD PUSH8 0xFFFFFFFFFFFFFFFF DUP2 GT ISZERO PUSH2 0x1F53 JUMPI PUSH2 0x1F52 PUSH2 0x1947 JUMP JUMPDEST JUMPDEST PUSH2 0x1F5F DUP6 DUP3 DUP7 ADD PUSH2 0x1EC6 JUMP JUMPDEST SWAP2 POP POP SWAP3 POP SWAP3 SWAP1 POP JUMP JUMPDEST PUSH0 PUSH1 0x60 DUP3 ADD SWAP1 POP DUP2 DUP2 SUB PUSH0 DUP4 ADD MSTORE PUSH2 0x1F81 DUP2 DUP7 PUSH2 0x1A20 JUMP JUMPDEST SWAP1 POP DUP2 DUP2 SUB PUSH1 0x20 DUP4 ADD MSTORE PUSH2 0x1F95 DUP2 DUP6 PUSH2 0x1A20 JUMP JUMPDEST SWAP1 POP PUSH2 0x1FA4 PUSH1 0x40 DUP4 ADD DUP5 PUSH2 0x1A72 JUMP JUMPDEST SWAP5 SWAP4 POP POP POP POP JUMP JUMPDEST PUSH2 0x1FB5 DUP2 PUSH2 0x1A67 JUMP JUMPDEST DUP2 EQ PUSH2 0x1FBF JUMPI PUSH0 DUP1 REVERT JUMPDEST POP JUMP JUMPDEST PUSH0 DUP2 CALLDATALOAD SWAP1 POP PUSH2 0x1FD0 DUP2 PUSH2 0x1FAC JUMP JUMPDEST SWAP3 SWAP2 POP POP JUMP JUMPDEST PUSH0 DUP1 PUSH0 PUSH1 0x60 DUP5 DUP7 SUB SLT ISZERO PUSH2 0x1FED JUMPI PUSH2 0x1FEC PUSH2 0x1943 JUMP JUMPDEST JUMPDEST PUSH0 PUSH2 0x1FFA DUP7 DUP3 DUP8 ADD PUSH2 0x196A JUMP JUMPDEST SWAP4 POP POP PUSH1 0x20 PUSH2 0x200B DUP7 DUP3 DUP8 ADD PUSH2 0x1FC2 JUMP JUMPDEST SWAP3 POP POP PUSH1 0x40 DUP5 ADD CALLDATALOAD PUSH8 0xFFFFFFFFFFFFFFFF DUP2 GT ISZERO PUSH2 0x202C JUMPI PUSH2 0x202B PUSH2 0x1947 JUMP JUMPDEST JUMPDEST PUSH2 0x2038 DUP7 DUP3 DUP8 ADD PUSH2 0x1EC6 JUMP JUMPDEST SWAP2 POP POP SWAP3 POP SWAP3 POP SWAP3 JUMP JUMPDEST PUSH0 DUP2 MLOAD SWAP1 POP SWAP2 SWAP1 POP JUMP JUMPDEST PUSH0 DUP3 DUP3 MSTORE PUSH1 0x20 DUP3 ADD SWAP1 POP SWAP3 SWAP2 POP POP JUMP JUMPDEST PUSH0 DUP2 SWAP1 POP PUSH1 0x20 DUP3 ADD SWAP1 POP SWAP2 SWAP1 POP JUMP JUMPDEST PUSH2 0x2074 DUP2 PUSH2 0x19C8 JUMP JUMPDEST DUP3 MSTORE POP POP JUMP JUMPDEST PUSH1 0xA0 DUP3 ADD PUSH0 DUP3 ADD MLOAD PUSH2 0x208E PUSH0 DUP6 ADD DUP3 PUSH2 0x1CDB JUMP JUMPDEST POP PUSH1 0x20 DUP3 ADD MLOAD PUSH2 0x20A1 PUSH1 0x20 DUP6 ADD DUP3 PUSH2 0x206B JUMP JUMPDEST POP PUSH1 0x40 DUP3 ADD MLOAD PUSH2 0x20B4 PUSH1 0x40 DUP6 ADD DUP3 PUSH2 0x1CDB JUMP JUMPDEST POP PUSH1 0x60 DUP3 ADD MLOAD PUSH2 0x20C7 PUSH1 0x60 DUP6 ADD DUP3 PUSH2 0x1CDB JUMP JUMPDEST POP PUSH1 0x80 DUP3 ADD MLOAD PUSH2 0x20DA PUSH1 0x80 DUP6 ADD DUP3 PUSH2 0x1CDB JUMP JUMPDEST POP POP POP POP JUMP JUMPDEST PUSH0 PUSH2 0x20EB DUP4 DUP4 PUSH2 0x207A JUMP JUMPDEST PUSH1 0xA0 DUP4 ADD SWAP1 POP SWAP3 SWAP2 POP POP JUMP JUMPDEST PUSH0 PUSH1 0x20 DUP3 ADD SWAP1 POP SWAP2 SWAP1 POP JUMP JUMPDEST PUSH0 PUSH2 0x210D DUP3 PUSH2 0x2042 JUMP JUMPDEST PUSH2 0x2117 DUP2 DUP6 PUSH2 0x204C JUMP JUMPDEST SWAP4 POP PUSH2 0x2122 DUP4 PUSH2 0x205C JUMP JUMPDEST DUP1 PUSH0 JUMPDEST DUP4 DUP2 LT ISZERO PUSH2 0x2152 JUMPI DUP2 MLOAD PUSH2 0x2139 DUP9 DUP3 PUSH2 0x20E0 JUMP JUMPDEST SWAP8 POP PUSH2 0x2144 DUP4 PUSH2 0x20F7 JUMP JUMPDEST SWAP3 POP POP PUSH1 0x1 DUP2 ADD SWAP1 POP PUSH2 0x2125 JUMP JUMPDEST POP DUP6 SWAP4 POP POP POP POP SWAP3 SWAP2 POP POP JUMP JUMPDEST PUSH0 PUSH1 0x20 DUP3 ADD SWAP1 POP DUP2 DUP2 SUB PUSH0 DUP4 ADD MSTORE PUSH2 0x2177 DUP2 DUP5 PUSH2 0x2103 JUMP JUMPDEST SWAP1 POP SWAP3 SWAP2 POP POP JUMP JUMPDEST PUSH0 DUP1 PUSH0 PUSH1 0x60 DUP5 DUP7 SUB SLT ISZERO PUSH2 0x2196 JUMPI PUSH2 0x2195 PUSH2 0x1943 JUMP JUMPDEST JUMPDEST PUSH0 DUP5 ADD CALLDATALOAD PUSH8 0xFFFFFFFFFFFFFFFF DUP2 GT ISZERO PUSH2 0x21B3 JUMPI PUSH2 0x21B2 PUSH2 0x1947 JUMP JUMPDEST JUMPDEST PUSH2 0x21BF DUP7 DUP3 DUP8 ADD PUSH2 0x1EC6 JUMP JUMPDEST SWAP4 POP POP PUSH1 0x20 PUSH2 0x21D0 DUP7 DUP3 DUP8 ADD PUSH2 0x196A JUMP JUMPDEST SWAP3 POP POP PUSH1 0x40 DUP5 ADD CALLDATALOAD PUSH8 0xFFFFFFFFFFFFFFFF DUP2 GT ISZERO PUSH2 0x21F1 JUMPI PUSH2 0x21F0 PUSH2 0x1947 JUMP JUMPDEST JUMPDEST PUSH2 0x21FD DUP7 DUP3 DUP8 ADD PUSH2 0x1EC6 JUMP JUMPDEST SWAP2 POP POP SWAP3 POP SWAP3 POP SWAP3 JUMP JUMPDEST PUSH0 DUP1 PUSH1 0x40 DUP4 DUP6 SUB SLT ISZERO PUSH2 0x221D JUMPI PUSH2 0x221C PUSH2 0x1943 JUMP JUMPDEST JUMPDEST PUSH0 PUSH2 0x222A DUP6 DUP3 DUP7 ADD PUSH2 0x196A JUMP JUMPDEST SWAP3 POP POP PUSH1 0x20 PUSH2 0x223B DUP6 DUP3 DUP7 ADD PUSH2 0x196A JUMP JUMPDEST SWAP2 POP POP SWAP3 POP SWAP3 SWAP1 POP JUMP JUMPDEST PUSH0 PUSH1 0xA0 DUP3 ADD SWAP1 POP PUSH2 0x2258 PUSH0 DUP4 ADD DUP9 PUSH2 0x1A58 JUMP JUMPDEST PUSH2 0x2265 PUSH1 0x20 DUP4 ADD DUP8 PUSH2 0x19D9 JUMP JUMPDEST PUSH2 0x2272 PUSH1 0x40 DUP4 ADD DUP7 PUSH2 0x1A58 JUMP JUMPDEST PUSH2 0x227F PUSH1 0x60 DUP4 ADD DUP6 PUSH2 0x1A58 JUMP JUMPDEST PUSH2 0x228C PUSH1 0x80 DUP4 ADD DUP5 PUSH2 0x1A58 JUMP JUMPDEST SWAP7 SWAP6 POP POP POP POP POP POP JUMP JUMPDEST PUSH0 PUSH1 0x20 DUP3 ADD SWAP1 POP PUSH2 0x22A9 PUSH0 DUP4 ADD DUP5 PUSH2 0x19D9 JUMP JUMPDEST SWAP3 SWAP2 POP POP JUMP JUMPDEST PUSH32 0x4361746368206E6F7420666F756E640000000000000000000000000000000000 PUSH0 DUP3 ADD MSTORE POP JUMP JUMPDEST PUSH0 PUSH2 0x22E3 PUSH1 0xF DUP4 PUSH2 0x19F2 JUMP JUMPDEST SWAP2 POP PUSH2 0x22EE DUP3 PUSH2 0x22AF JUMP JUMPDEST PUSH1 0x20 DUP3 ADD SWAP1 POP SWAP2 SWAP1 POP JUMP JUMPDEST PUSH0 PUSH1 0x20 DUP3 ADD SWAP1 POP DUP2 DUP2 SUB PUSH0 DUP4 ADD MSTORE PUSH2 0x2310 DUP2 PUSH2 0x22D7 JUMP JUMPDEST SWAP1 POP SWAP2 SWAP1 POP JUMP JUMPDEST PUSH32 0x4E487B7100000000000000000000000000000000000000000000000000000000 PUSH0 MSTORE PUSH1 0x22 PUSH1 0x4 MSTORE PUSH1 0x24 PUSH0 REVERT JUMPDEST PUSH0 PUSH1 0x2 DUP3 DIV SWAP1 POP PUSH1 0x1 DUP3 AND DUP1 PUSH2 0x235B JUMPI PUSH1 0x7F DUP3 AND SWAP2 POP JUMPDEST PUSH1 0x20 DUP3 LT DUP2 SUB PUSH2 0x236E JUMPI PUSH2 0x236D PUSH2 0x2317 JUMP JUMPDEST JUMPDEST POP SWAP2 SWAP1 POP JUMP JUMPDEST PUSH32 0x4E6F7420796F7572206361746368000000000000000000000000000000000000 PUSH0 DUP3 ADD MSTORE POP JUMP JUMPDEST PUSH0 PUSH2 0x23A8 PUSH1 0xE DUP4 PUSH2 0x19F2 JUMP JUMPDEST SWAP2 POP PUSH2 0x23B3 DUP3 PUSH2 0x2374 JUMP JUMPDEST PUSH1 0x20 DUP3 ADD SWAP1 POP SWAP2 SWAP1 POP JUMP JUMPDEST PUSH0 PUSH1 0x20 DUP3 ADD SWAP1 POP DUP2 DUP2 SUB PUSH0 DUP4 ADD MSTORE PUSH2 0x23D5 DUP2 PUSH2 0x239C JUMP JUMPDEST SWAP1 POP SWAP2 SWAP1 POP JUMP JUMPDEST PUSH32 0x4361746368206E6F7420617070726F7665640000000000000000000000000000 PUSH0 DUP3 ADD MSTORE POP JUMP JUMPDEST PUSH0 PUSH2 0x2410 PUSH1 0x12 DUP4 PUSH2 0x19F2 JUMP JUMPDEST SWAP2 POP PUSH2 0x241B DUP3 PUSH2 0x23DC JUMP JUMPDEST PUSH1 0x20 DUP3 ADD SWAP1 POP SWAP2 SWAP1 POP JUMP JUMPDEST PUSH0 PUSH1 0x20 DUP3 ADD SWAP1 POP DUP2 DUP2 SUB PUSH0 DUP4 ADD MSTORE PUSH2 0x243D DUP2 PUSH2 0x2404 JUMP JUMPDEST SWAP1 POP SWAP2 SWAP1 POP JUMP JUMPDEST PUSH32 0x4E487B7100000000000000000000000000000000000000000000000000000000 PUSH0 MSTORE PUSH1 0x11 PUSH1 0x4 MSTORE PUSH1 0x24 PUSH0 REVERT JUMPDEST PUSH0 PUSH2 0x247B DUP3 PUSH2 0x194B JUMP JUMPDEST SWAP2 POP PUSH2 0x2486 DUP4 PUSH2 0x194B JUMP JUMPDEST SWAP3 POP DUP3 DUP3 SUB SWAP1 POP DUP2 DUP2 GT ISZERO PUSH2 0x249E JUMPI PUSH2 0x249D PUSH2 0x2444 JUMP JUMPDEST JUMPDEST SWAP3 SWAP2 POP POP JUMP JUMPDEST PUSH32 0x496E76616C696420776569676874000000000000000000000000000000000000 PUSH0 DUP3 ADD MSTORE POP JUMP JUMPDEST PUSH0 PUSH2 0x24D8 PUSH1 0xE DUP4 PUSH2 0x19F2 JUMP JUMPDEST SWAP2 POP PUSH2 0x24E3 DUP3 PUSH2 0x24A4 JUMP JUMPDEST PUSH1 0x20 DUP3 ADD SWAP1 POP SWAP2 SWAP1 POP JUMP JUMPDEST PUSH0 PUSH1 0x20 DUP3 ADD SWAP1 POP DUP2 DUP2 SUB PUSH0 DUP4 ADD MSTORE PUSH2 0x2505 DUP2 PUSH2 0x24CC JUMP JUMPDEST SWAP1 POP SWAP2 SWAP1 POP JUMP JUMPDEST PUSH0 PUSH2 0x2516 DUP3 PUSH2 0x194B JUMP JUMPDEST SWAP2 POP PUSH2 0x2521 DUP4 PUSH2 0x194B JUMP JUMPDEST SWAP3 POP DUP3 DUP3 ADD SWAP1 POP DUP1 DUP3 GT ISZERO PUSH2 0x2539 JUMPI PUSH2 0x2538 PUSH2 0x2444 JUMP JUMPDEST JUMPDEST SWAP3 SWAP2 POP POP JUMP JUMPDEST PUSH0 PUSH1 0x40 DUP3 ADD SWAP1 POP PUSH2 0x2552 PUSH0 DUP4 ADD DUP6 PUSH2 0x1A58 JUMP JUMPDEST PUSH2 0x255F PUSH1 0x20 DUP4 ADD DUP5 PUSH2 0x1A58 JUMP JUMPDEST SWAP4 SWAP3 POP POP POP JUMP JUMPDEST PUSH32 0x4F6E6C792061646D696E2063616E20706572666F726D20746869732061637469 PUSH0 DUP3 ADD MSTORE PUSH32 0x6F6E000000000000000000000000000000000000000000000000000000000000 PUSH1 0x20 DUP3 ADD MSTORE POP JUMP JUMPDEST PUSH0 PUSH2 0x25C0 PUSH1 0x22 DUP4 PUSH2 0x19F2 JUMP JUMPDEST SWAP2 POP PUSH2 0x25CB DUP3 PUSH2 0x2566 JUMP JUMPDEST PUSH1 0x40 DUP3 ADD SWAP1 POP SWAP2 SWAP1 POP JUMP JUMPDEST PUSH0 PUSH1 0x20 DUP3 ADD SWAP1 POP DUP2 DUP2 SUB PUSH0 DUP4 ADD MSTORE PUSH2 0x25ED DUP2 PUSH2 0x25B4 JUMP JUMPDEST SWAP1 POP SWAP2 SWAP1 POP JUMP JUMPDEST PUSH0 PUSH1 0x40 DUP3 ADD SWAP1 POP PUSH2 0x2607 PUSH0 DUP4 ADD DUP6 PUSH2 0x19D9 JUMP JUMPDEST PUSH2 0x2614 PUSH1 0x20 DUP4 ADD DUP5 PUSH2 0x1A58 JUMP JUMPDEST SWAP4 SWAP3 POP POP POP JUMP JUMPDEST PUSH32 0x416C726561647920726567697374657265640000000000000000000000000000 PUSH0 DUP3 ADD MSTORE POP JUMP JUMPDEST PUSH0 PUSH2 0x264F PUSH1 0x12 DUP4 PUSH2 0x19F2 JUMP JUMPDEST SWAP2 POP PUSH2 0x265A DUP3 PUSH2 0x261B JUMP JUMPDEST PUSH1 0x20 DUP3 ADD SWAP1 POP SWAP2 SWAP1 POP JUMP JUMPDEST PUSH0 PUSH1 0x20 DUP3 ADD SWAP1 POP DUP2 DUP2 SUB PUSH0 DUP4 ADD MSTORE PUSH2 0x267C DUP2 PUSH2 0x2643 JUMP JUMPDEST SWAP1 POP SWAP2 SWAP1 POP JUMP JUMPDEST PUSH0 DUP2 SWAP1 POP DUP2 PUSH0 MSTORE PUSH1 0x20 PUSH0 KECCAK256 SWAP1 POP SWAP2 SWAP1 POP JUMP JUMPDEST PUSH0 PUSH1 0x20 PUSH1 0x1F DUP4 ADD DIV SWAP1 POP SWAP2 SWAP1 POP JUMP JUMPDEST PUSH0 DUP3 DUP3 SHL SWAP1 POP SWAP3 SWAP2 POP POP JUMP JUMPDEST PUSH0 PUSH1 0x8 DUP4 MUL PUSH2 0x26DF PUSH32 0xFFFFFFFFFFFFFFFFFFFFFFFFFFFFFFFFFFFFFFFFFFFFFFFFFFFFFFFFFFFFFFFF DUP3 PUSH2 0x26A4 JUMP JUMPDEST PUSH2 0x26E9 DUP7 DUP4 PUSH2 0x26A4 JUMP JUMPDEST SWAP6 POP DUP1 NOT DUP5 AND SWAP4 POP DUP1 DUP7 AND DUP5 OR SWAP3 POP POP POP SWAP4 SWAP3 POP POP POP JUMP JUMPDEST PUSH0 DUP2 SWAP1 POP SWAP2 SWAP1 POP JUMP JUMPDEST PUSH0 PUSH2 0x2724 PUSH2 0x271F PUSH2 0x271A DUP5 PUSH2 0x194B JUMP JUMPDEST PUSH2 0x2701 JUMP JUMPDEST PUSH2 0x194B JUMP JUMPDEST SWAP1 POP SWAP2 SWAP1 POP JUMP JUMPDEST PUSH0 DUP2 SWAP1 POP SWAP2 SWAP1 POP JUMP JUMPDEST PUSH2 0x273D DUP4 PUSH2 0x270A JUMP JUMPDEST PUSH2 0x2751 PUSH2 0x2749 DUP3 PUSH2 0x272B JUMP JUMPDEST DUP5 DUP5 SLOAD PUSH2 0x26B0 JUMP JUMPDEST DUP3 SSTORE POP POP POP POP JUMP JUMPDEST PUSH0 SWAP1 JUMP JUMPDEST PUSH2 0x2765 PUSH2 0x2759 JUMP JUMPDEST PUSH2 0x2770 DUP2 DUP5 DUP5 PUSH2 0x2734 JUMP JUMPDEST POP POP POP JUMP JUMPDEST JUMPDEST DUP2 DUP2 LT ISZERO PUSH2 0x2793 JUMPI PUSH2 0x2788 PUSH0 DUP3 PUSH2 0x275D JUMP JUMPDEST PUSH1 0x1 DUP2 ADD SWAP1 POP PUSH2 0x2776 JUMP JUMPDEST POP POP JUMP JUMPDEST PUSH1 0x1F DUP3 GT ISZERO PUSH2 0x27D8 JUMPI PUSH2 0x27A9 DUP2 PUSH2 0x2683 JUMP JUMPDEST PUSH2 0x27B2 DUP5 PUSH2 0x2695 JUMP JUMPDEST DUP2 ADD PUSH1 0x20 DUP6 LT ISZERO PUSH2 0x27C1 JUMPI DUP2 SWAP1 POP JUMPDEST PUSH2 0x27D5 PUSH2 0x27CD DUP6 PUSH2 0x2695 JUMP JUMPDEST DUP4 ADD DUP3 PUSH2 0x2775 JUMP JUMPDEST POP POP JUMPDEST POP POP POP JUMP JUMPDEST PUSH0 DUP3 DUP3 SHR SWAP1 POP SWAP3 SWAP2 POP POP JUMP JUMPDEST PUSH0 PUSH2 0x27F8 PUSH0 NOT DUP5 PUSH1 0x8 MUL PUSH2 0x27DD JUMP JUMPDEST NOT DUP1 DUP4 AND SWAP2 POP POP SWAP3 SWAP2 POP POP JUMP JUMPDEST PUSH0 PUSH2 0x2810 DUP4 DUP4 PUSH2 0x27E9 JUMP JUMPDEST SWAP2 POP DUP3 PUSH1 0x2 MUL DUP3 OR SWAP1 POP SWAP3 SWAP2 POP POP JUMP JUMPDEST PUSH2 0x2829 DUP3 PUSH2 0x19E8 JUMP JUMPDEST PUSH8 0xFFFFFFFFFFFFFFFF DUP2 GT ISZERO PUSH2 0x2842 JUMPI PUSH2 0x2841 PUSH2 0x1DCF JUMP JUMPDEST JUMPDEST PUSH2 0x284C DUP3 SLOAD PUSH2 0x2344 JUMP JUMPDEST PUSH2 0x2857 DUP3 DUP3 DUP6 PUSH2 0x2797 JUMP JUMPDEST PUSH0 PUSH1 0x20 SWAP1 POP PUSH1 0x1F DUP4 GT PUSH1 0x1 DUP2 EQ PUSH2 0x2888 JUMPI PUSH0 DUP5 ISZERO PUSH2 0x2876 JUMPI DUP3 DUP8 ADD MLOAD SWAP1 POP JUMPDEST PUSH2 0x2880 DUP6 DUP3 PUSH2 0x2805 JUMP JUMPDEST DUP7 SSTORE POP PUSH2 0x28E7 JUMP JUMPDEST PUSH1 0x1F NOT DUP5 AND PUSH2 0x2896 DUP7 PUSH2 0x2683 JUMP JUMPDEST PUSH0 JUMPDEST DUP3 DUP2 LT ISZERO PUSH2 0x28BD JUMPI DUP5 DUP10 ADD MLOAD DUP3 SSTORE PUSH1 0x1 DUP3 ADD SWAP2 POP PUSH1 0x20 DUP6 ADD SWAP5 POP PUSH1 0x20 DUP2 ADD SWAP1 POP PUSH2 0x2898 JUMP JUMPDEST DUP7 DUP4 LT ISZERO PUSH2 0x28DA JUMPI DUP5 DUP10 ADD MLOAD PUSH2 0x28D6 PUSH1 0x1F DUP10 AND DUP3 PUSH2 0x27E9 JUMP JUMPDEST DUP4 SSTORE POP JUMPDEST PUSH1 0x1 PUSH1 0x2 DUP9 MUL ADD DUP9 SSTORE POP POP POP JUMPDEST POP POP POP POP POP POP JUMP JUMPDEST PUSH32 0x436174636820646F6573206E6F74206578697374000000000000000000000000 PUSH0 DUP3 ADD MSTORE POP JUMP JUMPDEST PUSH0 PUSH2 0x2923 PUSH1 0x14 DUP4 PUSH2 0x19F2 JUMP JUMPDEST SWAP2 POP PUSH2 0x292E DUP3 PUSH2 0x28EF JUMP JUMPDEST PUSH1 0x20 DUP3 ADD SWAP1 POP SWAP2 SWAP1 POP JUMP JUMPDEST PUSH0 PUSH1 0x20 DUP3 ADD SWAP1 POP DUP2 DUP2 SUB PUSH0 DUP4 ADD MSTORE PUSH2 0x2950 DUP2 PUSH2 0x2917 JUMP JUMPDEST SWAP1 POP SWAP2 SWAP1 POP JUMP JUMPDEST PUSH0 PUSH1 0x40 DUP3 ADD SWAP1 POP PUSH2 0x296A PUSH0 DUP4 ADD DUP6 PUSH2 0x1A72 JUMP JUMPDEST DUP2 DUP2 SUB PUSH1 0x20 DUP4 ADD MSTORE PUSH2 0x297C DUP2 DUP5 PUSH2 0x1A20 JUMP JUMPDEST SWAP1 POP SWAP4 SWAP3 POP POP POP JUMP JUMPDEST PUSH32 0x4E6F7420612072656769737465726564206669736865726D616E000000000000 PUSH0 DUP3 ADD MSTORE POP JUMP JUMPDEST PUSH0 PUSH2 0x29B9 PUSH1 0x1A DUP4 PUSH2 0x19F2 JUMP JUMPDEST SWAP2 POP PUSH2 0x29C4 DUP3 PUSH2 0x2985 JUMP JUMPDEST PUSH1 0x20 DUP3 ADD SWAP1 POP SWAP2 SWAP1 POP JUMP JUMPDEST PUSH0 PUSH1 0x20 DUP3 ADD SWAP1 POP DUP2 DUP2 SUB PUSH0 DUP4 ADD MSTORE PUSH2 0x29E6 DUP2 PUSH2 0x29AD JUMP JUMPDEST SWAP1 POP SWAP2 SWAP1 POP JUMP JUMPDEST PUSH0 PUSH2 0x29F7 DUP3 PUSH2 0x194B JUMP JUMPDEST SWAP2 POP PUSH32 0xFFFFFFFFFFFFFFFFFFFFFFFFFFFFFFFFFFFFFFFFFFFFFFFFFFFFFFFFFFFFFFFF DUP3 SUB PUSH2 0x2A29 JUMPI PUSH2 0x2A28 PUSH2 0x2444 JUMP JUMPDEST JUMPDEST PUSH1 0x1 DUP3 ADD SWAP1 POP SWAP2 SWAP1 POP JUMP JUMPDEST PUSH0 DUP2 SWAP1 POP SWAP3 SWAP2 POP POP JUMP JUMPDEST PUSH32 0x68747470733A2F2F796F7572646F6D61696E2E636F6D2F7665726966792F0000 PUSH0 DUP3 ADD MSTORE POP JUMP JUMPDEST PUSH0 PUSH2 0x2A72 PUSH1 0x1E DUP4 PUSH2 0x2A34 JUMP JUMPDEST SWAP2 POP PUSH2 0x2A7D DUP3 PUSH2 0x2A3E JUMP JUMPDEST PUSH1 0x1E DUP3 ADD SWAP1 POP SWAP2 SWAP1 POP JUMP JUMPDEST PUSH0 PUSH2 0x2A92 DUP3 PUSH2 0x19E8 JUMP JUMPDEST PUSH2 0x2A9C DUP2 DUP6 PUSH2 0x2A34 JUMP JUMPDEST SWAP4 POP PUSH2 0x2AAC DUP2 DUP6 PUSH1 0x20 DUP7 ADD PUSH2 0x1A02 JUMP JUMPDEST DUP1 DUP5 ADD SWAP2 POP POP SWAP3 SWAP2 POP POP JUMP JUMPDEST PUSH0 PUSH2 0x2AC2 DUP3 PUSH2 0x2A66 JUMP JUMPDEST SWAP2 POP PUSH2 0x2ACE DUP3 DUP5 PUSH2 0x2A88 JUMP JUMPDEST SWAP2 POP DUP2 SWAP1 POP SWAP3 SWAP2 POP POP JUMP JUMPDEST PUSH32 0x4E487B7100000000000000000000000000000000000000000000000000000000 PUSH0 MSTORE PUSH1 0x12 PUSH1 0x4 MSTORE PUSH1 0x24 PUSH0 REVERT JUMPDEST PUSH0 PUSH2 0x2B10 DUP3 PUSH2 0x194B JUMP JUMPDEST SWAP2 POP PUSH2 0x2B1B DUP4 PUSH2 0x194B JUMP JUMPDEST SWAP3 POP DUP3 PUSH2 0x2B2B JUMPI PUSH2 0x2B2A PUSH2 0x2AD9 JUMP JUMPDEST JUMPDEST DUP3 DUP3 DIV SWAP1 POP SWAP3 SWAP2 POP POP JUMP JUMPDEST PUSH0 PUSH2 0x2B40 DUP3 PUSH2 0x194B JUMP JUMPDEST SWAP2 POP PUSH2 0x2B4B DUP4 PUSH2 0x194B JUMP JUMPDEST SWAP3 POP DUP3 PUSH2 0x2B5B JUMPI PUSH2 0x2B5A PUSH2 0x2AD9 JUMP JUMPDEST JUMPDEST DUP3 DUP3 MOD SWAP1 POP SWAP3 SWAP2 POP POP JUMP JUMPDEST PUSH32 0x4E487B7100000000000000000000000000000000000000000000000000000000 PUSH0 MSTORE PUSH1 0x32 PUSH1 0x4 MSTORE PUSH1 0x24 PUSH0 REVERT INVALID LOG2 PUSH5 0x6970667358 0x22 SLT KECCAK256 0xC2 SWAP13 SLOAD LOG4 0xB3 SLT SAR DUP14 MCOPY PUSH16 0xBAB2857BB3581C1328C44E7ADEB2A4F1 0xB6 PUSH7 0xEEC9837664736F PUSH13 0x634300081A0033000000000000 "
		},
		"gasEstimates": {
			"creation": {
				"codeDepositCost": "2241800",
				"executionCost": "26660",
				"totalCost": "2268460"
			},
			"external": {
				"admin()": "2593",
				"approveCatch(uint256,bool,string)": "infinite",
				"auditCompliance()": "3969",
				"catchCounter()": "2470",
				"catchWeightSold(uint256)": "infinite",
				"catches(uint256)": "infinite",
				"fishermanCatches(address,uint256)": "infinite",
				"fishermen(address)": "infinite",
				"getCatchDetails(uint256)": "infinite",
				"getCatchQRCode(uint256)": "infinite",
				"getFishermanCatches(address)": "infinite",
				"getSalesRecords(uint256)": "infinite",
				"logCatch(string,uint256,string)": "infinite",
				"registerFisherman(string,string)": "infinite",
				"sales(uint256,uint256)": "infinite",
				"sellFish(uint256,address,uint256,uint256)": "infinite"
			},
			"internal": {
				"uint2str(uint256)": "infinite"
			}
		},
		"methodIdentifiers": {
			"admin()": "f851a440",
			"approveCatch(uint256,bool,string)": "8705d744",
			"auditCompliance()": "2895243b",
			"catchCounter()": "4ca39ede",
			"catchWeightSold(uint256)": "754084c7",
			"catches(uint256)": "46f56373",
			"fishermanCatches(address,uint256)": "616d3717",
			"fishermen(address)": "681b4578",
			"getCatchDetails(uint256)": "14c956b4",
			"getCatchQRCode(uint256)": "2e9209c7",
			"getFishermanCatches(address)": "5b5f3568",
			"getSalesRecords(uint256)": "9ca0a84a",
			"logCatch(string,uint256,string)": "b59d5142",
			"registerFisherman(string,string)": "647c70f2",
			"sales(uint256,uint256)": "c53fd38e",
			"sellFish(uint256,address,uint256,uint256)": "1c614189"
		}
	},
	"abi": [
		{
			"inputs": [],
			"stateMutability": "nonpayable",
			"type": "constructor"
		},
		{
			"anonymous": false,
			"inputs": [
				{
					"indexed": true,
					"internalType": "uint256",
					"name": "catchId",
					"type": "uint256"
				},
				{
					"indexed": false,
					"internalType": "bool",
					"name": "isApproved",
					"type": "bool"
				},
				{
					"indexed": false,
					"internalType": "string",
					"name": "reason",
					"type": "string"
				}
			],
			"name": "CatchApproved",
			"type": "event"
		},
		{
			"anonymous": false,
			"inputs": [
				{
					"indexed": true,
					"internalType": "uint256",
					"name": "catchId",
					"type": "uint256"
				},
				{
					"indexed": true,
					"internalType": "address",
					"name": "fisherman",
					"type": "address"
				},
				{
					"indexed": false,
					"internalType": "string",
					"name": "qrCodeURL",
					"type": "string"
				}
			],
			"name": "CatchLogged",
			"type": "event"
		},
		{
			"anonymous": false,
			"inputs": [
				{
					"indexed": true,
					"internalType": "uint256",
					"name": "catchId",
					"type": "uint256"
				},
				{
					"indexed": true,
					"internalType": "address",
					"name": "buyer",
					"type": "address"
				},
				{
					"indexed": false,
					"internalType": "uint256",
					"name": "weight",
					"type": "uint256"
				},
				{
					"indexed": false,
					"internalType": "uint256",
					"name": "price",
					"type": "uint256"
				}
			],
			"name": "FishSold",
			"type": "event"
		},
		{
			"anonymous": false,
			"inputs": [
				{
					"indexed": true,
					"internalType": "address",
					"name": "fisherman",
					"type": "address"
				},
				{
					"indexed": false,
					"internalType": "string",
					"name": "licenseId",
					"type": "string"
				}
			],
			"name": "FishermanRegistered",
			"type": "event"
		},
		{
			"anonymous": false,
			"inputs": [
				{
					"indexed": false,
					"internalType": "address",
					"name": "auditor",
					"type": "address"
				},
				{
					"indexed": false,
					"internalType": "uint256",
					"name": "timestamp",
					"type": "uint256"
				}
			],
			"name": "GovernmentAudit",
			"type": "event"
		},
		{
			"inputs": [],
			"name": "admin",
			"outputs": [
				{
					"internalType": "address",
					"name": "",
					"type": "address"
				}
			],
			"stateMutability": "view",
			"type": "function"
		},
		{
			"inputs": [
				{
					"internalType": "uint256",
					"name": "_catchId",
					"type": "uint256"
				},
				{
					"internalType": "bool",
					"name": "_status",
					"type": "bool"
				},
				{
					"internalType": "string",
					"name": "_reason",
					"type": "string"
				}
			],
			"name": "approveCatch",
			"outputs": [],
			"stateMutability": "nonpayable",
			"type": "function"
		},
		{
			"inputs": [],
			"name": "auditCompliance",
			"outputs": [],
			"stateMutability": "nonpayable",
			"type": "function"
		},
		{
			"inputs": [],
			"name": "catchCounter",
			"outputs": [
				{
					"internalType": "uint256",
					"name": "",
					"type": "uint256"
				}
			],
			"stateMutability": "view",
			"type": "function"
		},
		{
			"inputs": [
				{
					"internalType": "uint256",
					"name": "",
					"type": "uint256"
				}
			],
			"name": "catchWeightSold",
			"outputs": [
				{
					"internalType": "uint256",
					"name": "",
					"type": "uint256"
				}
			],
			"stateMutability": "view",
			"type": "function"
		},
		{
			"inputs": [
				{
					"internalType": "uint256",
					"name": "",
					"type": "uint256"
				}
			],
			"name": "catches",
			"outputs": [
				{
					"internalType": "uint256",
					"name": "id",
					"type": "uint256"
				},
				{
					"internalType": "address",
					"name": "fisherman",
					"type": "address"
				},
				{
					"internalType": "string",
					"name": "species",
					"type": "string"
				},
				{
					"internalType": "uint256",
					"name": "weight",
					"type": "uint256"
				},
				{
					"internalType": "string",
					"name": "gpsLocation",
					"type": "string"
				},
				{
					"internalType": "uint256",
					"name": "timestamp",
					"type": "uint256"
				},
				{
					"internalType": "bool",
					"name": "isApproved",
					"type": "bool"
				},
				{
					"internalType": "string",
					"name": "approvalReason",
					"type": "string"
				},
				{
					"internalType": "string",
					"name": "qrCodeURL",
					"type": "string"
				}
			],
			"stateMutability": "view",
			"type": "function"
		},
		{
			"inputs": [
				{
					"internalType": "address",
					"name": "",
					"type": "address"
				},
				{
					"internalType": "uint256",
					"name": "",
					"type": "uint256"
				}
			],
			"name": "fishermanCatches",
			"outputs": [
				{
					"internalType": "uint256",
					"name": "",
					"type": "uint256"
				}
			],
			"stateMutability": "view",
			"type": "function"
		},
		{
			"inputs": [
				{
					"internalType": "address",
					"name": "",
					"type": "address"
				}
			],
			"name": "fishermen",
			"outputs": [
				{
					"internalType": "string",
					"name": "name",
					"type": "string"
				},
				{
					"internalType": "string",
					"name": "licenseId",
					"type": "string"
				},
				{
					"internalType": "bool",
					"name": "isRegistered",
					"type": "bool"
				}
			],
			"stateMutability": "view",
			"type": "function"
		},
		{
			"inputs": [
				{
					"internalType": "uint256",
					"name": "_catchId",
					"type": "uint256"
				}
			],
			"name": "getCatchDetails",
			"outputs": [
				{
					"internalType": "address",
					"name": "fisherman",
					"type": "address"
				},
				{
					"internalType": "string",
					"name": "species",
					"type": "string"
				},
				{
					"internalType": "uint256",
					"name": "weight",
					"type": "uint256"
				},
				{
					"internalType": "string",
					"name": "gpsLocation",
					"type": "string"
				},
				{
					"internalType": "uint256",
					"name": "timestamp",
					"type": "uint256"
				},
				{
					"internalType": "bool",
					"name": "isApproved",
					"type": "bool"
				},
				{
					"internalType": "string",
					"name": "approvalReason",
					"type": "string"
				},
				{
					"internalType": "string",
					"name": "qrCodeURL",
					"type": "string"
				}
			],
			"stateMutability": "view",
			"type": "function"
		},
		{
			"inputs": [
				{
					"internalType": "uint256",
					"name": "_catchId",
					"type": "uint256"
				}
			],
			"name": "getCatchQRCode",
			"outputs": [
				{
					"internalType": "string",
					"name": "",
					"type": "string"
				}
			],
			"stateMutability": "view",
			"type": "function"
		},
		{
			"inputs": [
				{
					"internalType": "address",
					"name": "_fisherman",
					"type": "address"
				}
			],
			"name": "getFishermanCatches",
			"outputs": [
				{
					"internalType": "uint256[]",
					"name": "",
					"type": "uint256[]"
				}
			],
			"stateMutability": "view",
			"type": "function"
		},
		{
			"inputs": [
				{
					"internalType": "uint256",
					"name": "_catchId",
					"type": "uint256"
				}
			],
			"name": "getSalesRecords",
			"outputs": [
				{
					"components": [
						{
							"internalType": "uint256",
							"name": "catchId",
							"type": "uint256"
						},
						{
							"internalType": "address",
							"name": "buyer",
							"type": "address"
						},
						{
							"internalType": "uint256",
							"name": "weightSold",
							"type": "uint256"
						},
						{
							"internalType": "uint256",
							"name": "price",
							"type": "uint256"
						},
						{
							"internalType": "uint256",
							"name": "timestamp",
							"type": "uint256"
						}
					],
					"internalType": "struct SeafoodTracking.SaleTransaction[]",
					"name": "",
					"type": "tuple[]"
				}
			],
			"stateMutability": "view",
			"type": "function"
		},
		{
			"inputs": [
				{
					"internalType": "string",
					"name": "_species",
					"type": "string"
				},
				{
					"internalType": "uint256",
					"name": "_weight",
					"type": "uint256"
				},
				{
					"internalType": "string",
					"name": "_gpsLocation",
					"type": "string"
				}
			],
			"name": "logCatch",
			"outputs": [],
			"stateMutability": "nonpayable",
			"type": "function"
		},
		{
			"inputs": [
				{
					"internalType": "string",
					"name": "_name",
					"type": "string"
				},
				{
					"internalType": "string",
					"name": "_licenseId",
					"type": "string"
				}
			],
			"name": "registerFisherman",
			"outputs": [],
			"stateMutability": "nonpayable",
			"type": "function"
		},
		{
			"inputs": [
				{
					"internalType": "uint256",
					"name": "",
					"type": "uint256"
				},
				{
					"internalType": "uint256",
					"name": "",
					"type": "uint256"
				}
			],
			"name": "sales",
			"outputs": [
				{
					"internalType": "uint256",
					"name": "catchId",
					"type": "uint256"
				},
				{
					"internalType": "address",
					"name": "buyer",
					"type": "address"
				},
				{
					"internalType": "uint256",
					"name": "weightSold",
					"type": "uint256"
				},
				{
					"internalType": "uint256",
					"name": "price",
					"type": "uint256"
				},
				{
					"internalType": "uint256",
					"name": "timestamp",
					"type": "uint256"
				}
			],
			"stateMutability": "view",
			"type": "function"
		},
		{
			"inputs": [
				{
					"internalType": "uint256",
					"name": "_catchId",
					"type": "uint256"
				},
				{
					"internalType": "address",
					"name": "_buyer",
					"type": "address"
				},
				{
					"internalType": "uint256",
					"name": "_weight",
					"type": "uint256"
				},
				{
					"internalType": "uint256",
					"name": "_price",
					"type": "uint256"
				}
			],
			"name": "sellFish",
			"outputs": [],
			"stateMutability": "nonpayable",
			"type": "function"
		}
	]
}